C51 COMPILER V9.60.0.0   UART4                                                             03/07/2022 15:54:02 PAGE 1   


C51 COMPILER V9.60.0.0, COMPILATION OF MODULE UART4
OBJECT MODULE PLACED IN .\Output\uart4.obj
COMPILER INVOKED BY: C:\Keil_v5\C51\BIN\C51.EXE uart4.c LARGE OPTIMIZE(8,SPEED) INCDIR(..\Project) DEBUG OBJECTEXTEND TA
                    -BS(2) OBJECT(.\Output\uart4.obj)

line level    source

   1          #include "uart4.h"
   2          #include "source.h"
   3          //串口3使用寄存器
   4          char wptr4 = 0;
   5          char rptr4 = 0;
   6          uchar buffer4[256]={0};
   7          bit busy4;
   8          //新增变量
   9          uchar   Uart4_getcom=0;
  10          uchar   Uart4_get_data[256]={0};
  11          uchar   Uart4_send_data[15]={0};
  12          uint16_t   current_voltage=0;
  13          uchar   current_power=0;
  14          uchar   charging_time = 0;
  15          uchar   uart4_id = 0;
  16          uchar   current_state = 0;
  17          uchar   current_state_bits = 0;
  18          uchar   inspection_data  ;
  19          uchar   get_inspection_data ;
  20          uchar   Open_flag = 0; //飞机开启标志
  21          
  22          void Uart4Isr() interrupt 18
  23          {
  24   1        int i =0;
  25   1        int t=0;
  26   1        int j=0;
  27   1          if (S4CON & 0x02)
  28   1          {
  29   2              S4CON &= ~0x02;
  30   2              busy4 = 0;
  31   2          }
  32   1          if (S4CON & 0x01)
  33   1          {
  34   2      //      Uart4_getcom=0;
  35   2      //uchar   Uart4_get_data[256]={0};
  36   2      
  37   2              S4CON &= ~0x01;
  38   2              buffer4[wptr4++] = S4BUF;
  39   2              wptr4 &= 0x0ff;
  40   2             for(i=0;i<wptr4;i++){
  41   3                if(((uint8_t)(buffer4[i])== 0x3c) &&((uint8_t)(buffer4[i+5])== 0xc3)&&(wptr4>=5))       
  42   3                { 
  43   4                  int temp= 0;
  44   4                  temp = (uchar)buffer4[i]+ (uchar)buffer4[i+1]+ (uchar)buffer4[i+2]+ (uchar)(buffer4[i+3]);
  45   4                  inspection_data = (uint8_t)(temp & 0xff ); //计算的校验数据
  46   4                  get_inspection_data = buffer4[i+4];
  47   4      //            temp = temp & 0xff;
  48   4                  if( inspection_data == get_inspection_data ){             
  49   5                    for(t=i;t<i+6;t++){       
  50   6                        Uart4_get_data[j++]=buffer4[t];
  51   6                      }
  52   5                    }
  53   4      //           Uart4_getcom = 1;
  54   4      //           wptr4 = 0;         
C51 COMPILER V9.60.0.0   UART4                                                             03/07/2022 15:54:02 PAGE 2   

  55   4      //           memset(buffer4,0,sizeof(buffer4));
  56   4              
  57   4                 Uart4_getcom = 1;
  58   4                 wptr4 = 0;         
  59   4                 memset(buffer4,0,sizeof(buffer4));
  60   4                }
  61   3                    }
  62   2            // }
  63   2         }
  64   1        
  65   1      }
  66          
  67          void Uart4Init()
  68          {
  69   1          S4CON = 0x10;
  70   1          T2L = BRT;
  71   1          T2H = BRT >> 8;
  72   1      //    T4T3M = 0xa0;
  73   1          AUXR |= 0x14;
  74   1          wptr4 = 0x00;
  75   1          rptr4 = 0x00;
  76   1          busy4 = 0;
  77   1      }
  78          
  79          void Uart4Send(char dat)
  80          {
  81   1          while (busy4);
  82   1          busy4 = 1;
  83   1          S4BUF = dat;
  84   1      }
  85          
  86          void Uart4SendStr(char *p)
  87          {
  88   1          while (*p)
  89   1          {
  90   2              Uart4Send(*p++);
  91   2          }
  92   1      }
  93          
  94          
  95          //uart4 deal program
  96          void uart4_rec_deal(void){
  97   1       if(Uart4_getcom==1){
  98   2                    if( (Uart4_get_data[1] == 0x00) || (Uart4_get_data[1] == uart4_id )){
  99   3                       
 100   3                         if(Uart4_get_data[2] == 0x01){   //充电状态 查询 
 101   4                              uart4_inquiry_send_deal() ;   //充电状态回复
 102   4                           
 103   4                         }else if(Uart4_get_data[2] == 0x02){    //充电命令下发
 104   4                            switch (Uart4_get_data[3])
 105   4                            {
 106   5                                case 1 :    //关机充电  
 107   5                                  if(Open_flag == 1)  //飞机开机
 108   5                                  {                             
 109   6                                    if( P34 == 1){    //O1  充电 
 110   7                                       P34 = 0;
 111   7                                       P27= 0;    //关机 
 112   7                                       delay_ms(2000);  
 113   7                                     //  P32 = 0; // 无人机关机 
 114   7                                       power_control();
 115   7                                       delay_ms(10000); 
 116   7                                      
C51 COMPILER V9.60.0.0   UART4                                                             03/07/2022 15:54:02 PAGE 3   

 117   7                                    }
 118   6                                    else if( P34 == 0){    //O1  未充电     
 119   7                                     
 120   7                                     //  P32 = 0; // 无人机关机 
 121   7                                       power_control();                             
 122   7                                      
 123   7                                    }
 124   6                                  }
 125   5                                   P27= 1;   //P27   开机
 126   5                                   P34 = 1;    //O1  充电
 127   5                                  current_state =     0x02  ;  //充电模块状态指示 关机充电        
 128   5                                         break;     // 并退出 switch
 129   5                                case 2 :   //开机充电
 130   5      
 131   5                                  //判断无人机是否开机
 132   5                                if(Open_flag == 0)  //飞机关机
 133   5                                  {                             
 134   6                                     power_control();
 135   6                                  }
 136   5                                     P27= 1;   //P27
 137   5                                     P34 = 1;   
 138   5                                    current_state =     0x03  ;  //充电模块状态指示 开机充电      
 139   5                                         break;
 140   5                                case 0x11 :    //停止充电                                                       
 141   5                                     P34 = 0;
 142   5                                     P27= 0;
 143   5                                     current_state =    0x01  ;  //充电模块状态指示 未充电        
 144   5                                         break;     // 并退出 switch
 145   5                                case 0x12:   //无人机开机
 146   5                                  if(Open_flag == 1)  //飞机开机的情况下
 147   5                                  {
 148   6                                      if( P34 == 1){    //O1  开机充电时接收到开关机指令   
 149   7                                         P27= 0;   //P27
 150   7                                         P34 = 0;  
 151   7                                         delay_ms(2000);  
 152   7                                       //  P32 = 0; // 无人机关机 
 153   7                                         power_control();
 154   7                                         delay_ms(10000); 
 155   7                                          P27= 1;   //P27
 156   7                                          P34 = 1;                
 157   7                                        }else{
 158   7                                          power_control(); //未充电时接收到开关机指令
 159   7                                        }
 160   6                                }else {    //飞机关机的情况下，获取到开关机指令
 161   6                                  power_control();
 162   6                                }
 163   5                                  
 164   5      
 165   5                                  if( current_state !=    0x03  ) //充电模块状态指示  开机充电    
 166   5                                  {
 167   6                                     current_state =    0x04  ;  //充电模块状态指示 无人机开机          
 168   6                                  }                             
 169   5                                         break;
 170   5                                case 0x13:   //无人机关机
 171   5                                  
 172   5                                  //判断一下当无人机开机的时候并且充电时候
 173   5                                  //先关电源后才能关机
 174   5      //                          if(Open_flag == 1)  //飞机开机
 175   5      //                          {                             
 176   5                                    if( P34 == 1){    //O1  充电 
 177   6                                         P27= 0;   //P27
 178   6                                         P34 = 0;  
C51 COMPILER V9.60.0.0   UART4                                                             03/07/2022 15:54:02 PAGE 4   

 179   6                                         delay_ms(2000);  
 180   6                                       //  P32 = 0; // 无人机关机 
 181   6                                         power_control();
 182   6                                         delay_ms(10000); 
 183   6                                          P27= 1;   //P27
 184   6                                          P34 = 1;                
 185   6                                  }
 186   5                                else if( P34 == 0){ //未充电
 187   6                                  power_control();
 188   6                                }
 189   5      //                        }
 190   5                                //power_control();
 191   5                                  if( current_state !=    0x02  ) //充电模块状态指示  关机充电    
 192   5                                  {
 193   6                                     current_state =    0x09  ;  //充电模块状态指示 无人机关机              
 194   6                                  }                                                 
 195   5                                  break;
 196   5                                default:
 197   5                                printf("commmand error!\r\n"); // 命令下发出错
 198   5                            }
 199   4                            
 200   4                            
 201   4                         
 202   4                         }if(Uart4_get_data[2] == 0x03){  //设置充电板地址
 203   4                             uart4_write_id();                     
 204   4                         }if(Uart4_get_data[2] == 0x04){  //返回充电板地址
 205   4                             uart4_inquiry_send_deal() ;   //充电状态回复
 206   4                         
 207   4                         }if(Uart4_get_data[2] == 0x05){
 208   4                             uart4_write_time_limit();
 209   4                         
 210   4                         }if(Uart4_get_data[2] == 0x06){
 211   4                            Trans_chose = Uart4_get_data[3];//上传是否需要开启
 212   4                            uart4_write_Trans_chose();
 213   4                            //Trans_times = 0;//上传周期设置
 214   4                         }if(Uart4_get_data[2] == 0x07){
 215   4                            Trans_times = Uart4_get_data[3];//上传周期设置
 216   4                            uart4_write_Trans_times();
 217   4                         }
 218   3                         
 219   3                                     
 220   3                    }
 221   2                   UartSendStr(Uart4_get_data);                                                                       
             -                          
 222   2                   Uart4_getcom=0;
 223   2                   memset(Uart4_get_data,0,sizeof(Uart4_get_data));
 224   2                  }
 225   1      }
 226          
 227          //uart4 send deal program
 228          void uart4_inquiry_send_deal(void){
 229   1        
 230   1        int i=0;
 231   1        int j=0;
 232   1        P43 = 1; //发送使能
 233   1        Uart4_send_data[0] = 0x3c;
 234   1        Uart4_send_data[1] = 0x01; //查询上报
 235   1        //Uart4_send_data[1] = 0x02; //自动上报
 236   1        
 237   1        Uart4_send_data[2] = uart4_id; //当前设备地址
 238   1      //   P32 = 0    ; // 无人机关机
 239   1      //   P27= 1;   //P27
C51 COMPILER V9.60.0.0   UART4                                                             03/07/2022 15:54:02 PAGE 5   

 240   1      //   P34 = 1;   //O1
 241   1        ////充电状态  
 242   1         Uart4_send_data[3]  = current_state_bits;
 243   1      
 244   1         Uart4_send_data[4]  = current_voltage >> 8;                        //当前电压
 245   1         Uart4_send_data[5]  = current_voltage & 0x00ff;                        //当前电压
 246   1         Uart4_send_data[6]  = current_power;  //当前电量
 247   1        
 248   1        Uart4_send_data[7] = charging_time;  //充电时间
 249   1        Uart4_send_data[8] = Charging_time_limit;             //充电限制时间
 250   1        Uart4_send_data[12] = 0xc3;
 251   1        Uart4_send_data[11] = 0; //校验和
 252   1        for( j=0;j<11;j++){
 253   2          Uart4_send_data[11] += Uart4_send_data[j];
 254   2        }
 255   1        Uart4_send_data[11] &=0xff;
 256   1         for(i=0;i<13;i++ ){
 257   2            Uart4Send(Uart4_send_data[i]);
 258   2         }
 259   1        delay_ms(2) ;
 260   1        P43 = 0; //接收使能
 261   1      }
 262          
 263          //uart4 send deal program
 264          void uart4_auto_send_deal(void){
 265   1        
 266   1        int i=0;
 267   1        int j=0;
 268   1        P43 = 1; //发送使能
 269   1        Uart4_send_data[0] = 0x3c;
 270   1      //  Uart4_send_data[1] = 0x01; //查询上报
 271   1        Uart4_send_data[1] = 0x02; //自动上报
 272   1        
 273   1        Uart4_send_data[2] = uart4_id; //当前设备地址
 274   1      //   P32 = 0    ; // 无人机关机
 275   1      //   P27= 1;   //P27
 276   1      //   P34 = 1;   //O1
 277   1        ////充电状态  
 278   1         Uart4_send_data[3]  = current_state_bits;
 279   1      //  Uart4_send_data[3]  = 0x20;
 280   1         Uart4_send_data[4]  = current_voltage >> 8;                        //当前电压
 281   1         Uart4_send_data[5]  = current_voltage & 0x00ff;                        //当前电压
 282   1         Uart4_send_data[6]  = current_power;  //当前电量
 283   1        
 284   1        Uart4_send_data[7] = charging_time;  //充电时间
 285   1        Uart4_send_data[8] = Trans_chose; //是否上报
 286   1        Uart4_send_data[9] = Trans_times; //上报周期
 287   1        Uart4_send_data[10] = Charging_time_limit; //设置的充电时间
 288   1        Uart4_send_data[12] = 0xc3;
 289   1        Uart4_send_data[11] = 0; //
 290   1        for( j=0;j<11;j++){
 291   2          Uart4_send_data[11] += Uart4_send_data[j];
 292   2        }
 293   1        Uart4_send_data[11] &=0xff;
 294   1         for(i=0;i<13;i++ ){
 295   2            Uart4Send(Uart4_send_data[i]);
 296   2         }
 297   1        delay_ms(2) ;
 298   1        P43 = 0; //接收使能
 299   1        
 300   1      }
 301          
C51 COMPILER V9.60.0.0   UART4                                                             03/07/2022 15:54:02 PAGE 6   

 302          
 303          void  uart4_write_id(){
 304   1             
 305   1            IapErase(0x7E00);    //清除512个字节 
 306   1            IapProgram(0x7E01,Uart4_get_data[3] );//写入值 到地址0x7E01
 307   1            uart4_id = (uchar)IapRead(0x7E01);      //读取 地址0x7e01 的值 
 308   1      } 
 309          
 310          
 311          //读 id
 312          void  uart4_id_read(){
 313   1            uart4_id = (uchar)IapRead(0x7E01);      //读取 地址0x7e01 的值
 314   1        //    printf("uart4_id =  %x\r\n",(int)uart4_id );
 315   1        
 316   1      }
 317          void  uart4_write_time_limit(){    
 318   1            IapErase(0x7c00);    //清除512个字节 
 319   1            IapProgram(0x7c01,Uart4_get_data[3] );//写入值 
 320   1            Charging_time_limit = (uchar)IapRead(0x7c01);      //读取 地址0x7c01 的值 
 321   1      } 
 322          
 323          
 324          //读 time
 325          void  uart4_read_time_limit(){
 326   1            Charging_time_limit = (uchar)IapRead(0x7c01);      //读取 地址0x7c01 的值
 327   1      }
 328          //是否上传选择
 329          void  uart4_write_Trans_chose(){    
 330   1            IapErase(0x7A00);    //清除512个字节 
 331   1            IapProgram(0x7A01,Uart4_get_data[3]);//写入值 
 332   1            Trans_chose = (uchar)IapRead(0x7A01);      //读取 地址0x7c01 的值 
 333   1      } 
 334          
 335          
 336          //读
 337          void  uart4_read_Trans_chose(){
 338   1           Trans_chose = (uchar)IapRead(0x7A01);      //读取 地址0x7c01 的值
 339   1      }
 340          
 341          //s
 342          void  uart4_write_Trans_times(){    
 343   1            IapErase(0x7800);    //清除512个字节 
 344   1            IapProgram(0x7801,Uart4_get_data[3]); //写入值 
 345   1            Trans_times = (uchar)IapRead(0x7801); //读取 地址0x7c01 的值 
 346   1      } 
 347          
 348          
 349          //读
 350          void  uart4_read_Trans_times(){
 351   1           Trans_times = (uchar)IapRead(0x7801);      //读取 地址0x7c01 的值
 352   1      }
 353          void  power_control(void){
 354   1         P32 = 1    ; // 无人机开关机 
 355   1         delay_ms(500); 
 356   1         P32 = 0    ; // 无人机开关机 
 357   1         delay_ms(500); 
 358   1         P32 = 1   ; // 无人机开关机  
 359   1         delay_1000ms(3);
 360   1         P32 = 0  ; // 无人机开关机 
 361   1      }
 362          
 363          //充电状态检测
C51 COMPILER V9.60.0.0   UART4                                                             03/07/2022 15:54:02 PAGE 7   

 364          void get_current_state_bit0(void){
 365   1                  if(P34 == 0){            
 366   2                     current_state_bits  &=  ~0x01 ;    //未充电 
 367   2                  }
 368   1                  if(P34 == 1){
 369   2                     current_state_bits  |= 0x01;    //充电
 370   2                  }
 371   1      }
 372          
 373          ////电池状态检测
 374          //void get_current_state_bit(void){
 375          //            if(P34 == 0){            
 376          //               current_state_bits  &=  !0x01 ;    //未充电 
 377          //            }
 378          //            if(P34 == 1){
 379          //               current_state_bits  |= 0x01;    //充电 
 380          //            }
 381          //}
 382          
 383          
 384          //自动上传数据选择并且设定上传时间
 385          void uart4_auto_send_chose_timeset(void){
 386   1        
 387   1        
 388   1      }
 389          
 390          
 391          
 392          
 393          
 394          
 395          


MODULE INFORMATION:   STATIC OVERLAYABLE
   CODE SIZE        =   1475    ----
   CONSTANT SIZE    =     18    ----
   XDATA SIZE       =    540      11
   PDATA SIZE       =   ----    ----
   DATA SIZE        =   ----    ----
   IDATA SIZE       =   ----    ----
   BIT SIZE         =      1    ----
END OF MODULE INFORMATION.


C51 COMPILATION COMPLETE.  0 WARNING(S),  0 ERROR(S)
