BL51 BANKED LINKER/LOCATER V6.22.2.0                                                    02/24/2021  13:50:53  PAGE 1


BL51 BANKED LINKER/LOCATER V6.22.2.0, INVOKED BY:
C:\KEIL_V5\C51\BIN\BL51.EXE .\Output\main.obj, .\Output\uart.obj, .\Output\delay.obj, .\Output\iic.obj, .\Output\adc.obj
>> , .\Output\tinit.obj, .\Output\uart2.obj, .\Output\time3count.obj, .\Output\lora.obj, .\Output\eeprom.obj TO .\Output
>> \test166 PRINT (.\test166.m51) RAMSIZE (256) DISABLEWARNING (16)


MEMORY MODEL: LARGE WITH FLOATING POINT ARITHMETIC


INPUT MODULES INCLUDED:
  .\Output\main.obj (MAIN)
  .\Output\uart.obj (UART)
  .\Output\delay.obj (DELAY)
  .\Output\iic.obj (IIC)
  .\Output\adc.obj (ADC)
  .\Output\tinit.obj (TINIT)
  .\Output\uart2.obj (UART2)
  .\Output\time3count.obj (TIME3COUNT)
  .\Output\lora.obj (LORA)
  .\Output\eeprom.obj (EEPROM)
  C:\KEIL_V5\C51\LIB\C51FPL.LIB (?C?FPADD)
  C:\KEIL_V5\C51\LIB\C51FPL.LIB (?C?FPMUL)
  C:\KEIL_V5\C51\LIB\C51FPL.LIB (?C?FPDIV)
  C:\KEIL_V5\C51\LIB\C51FPL.LIB (?C?FPCMP)
  C:\KEIL_V5\C51\LIB\C51FPL.LIB (?C?FCAST)
  C:\KEIL_V5\C51\LIB\C51FPL.LIB (?C?CASTF)
  C:\KEIL_V5\C51\LIB\C51FPL.LIB (PRINTF)
  C:\KEIL_V5\C51\LIB\C51FPL.LIB (FABS)
  C:\KEIL_V5\C51\LIB\C51FPL.LIB (?C?FPGETOPN)
  C:\KEIL_V5\C51\LIB\C51FPL.LIB (?C?FPROUND)
  C:\KEIL_V5\C51\LIB\C51FPL.LIB (?C?FPCONVERT)
  C:\KEIL_V5\C51\LIB\C51FPL.LIB (?C?FTNPWR)
  C:\KEIL_V5\C51\LIB\C51L.LIB (?C_STARTUP)
  C:\KEIL_V5\C51\LIB\C51L.LIB (?C?COPY)
  C:\KEIL_V5\C51\LIB\C51L.LIB (?C?CLDPTR)
  C:\KEIL_V5\C51\LIB\C51L.LIB (?C?CLDOPTR)
  C:\KEIL_V5\C51\LIB\C51L.LIB (?C?CSTPTR)
  C:\KEIL_V5\C51\LIB\C51L.LIB (?C?IMUL)
  C:\KEIL_V5\C51\LIB\C51L.LIB (?C?SIDIV)
  C:\KEIL_V5\C51\LIB\C51L.LIB (?C?ILDIX)
  C:\KEIL_V5\C51\LIB\C51L.LIB (?C?ILDPTR)
  C:\KEIL_V5\C51\LIB\C51L.LIB (?C?LNEG)
  C:\KEIL_V5\C51\LIB\C51L.LIB (?C?ULCMP)
  C:\KEIL_V5\C51\LIB\C51L.LIB (?C?LSTXDATA)
  C:\KEIL_V5\C51\LIB\C51L.LIB (?C?PLDIXDATA)
  C:\KEIL_V5\C51\LIB\C51L.LIB (?C?PSTXDATA)
  C:\KEIL_V5\C51\LIB\C51L.LIB (?C?CCASE)
  C:\KEIL_V5\C51\LIB\C51L.LIB (ABS)
  C:\KEIL_V5\C51\LIB\C51L.LIB (?C?STRCMP)
  C:\KEIL_V5\C51\LIB\C51L.LIB (?C?MEMSET)
  C:\KEIL_V5\C51\LIB\C51L.LIB (?C_INIT)
  C:\KEIL_V5\C51\LIB\C51L.LIB (?C?UIDIV)


LINK MAP OF MODULE:  .\Output\test166 (MAIN)


            TYPE    BASE      LENGTH    RELOCATION   SEGMENT NAME
BL51 BANKED LINKER/LOCATER V6.22.2.0                                                  02/24/2021  13:50:53  PAGE 2


            -----------------------------------------------------

            * * * * * * *   D A T A   M E M O R Y   * * * * * * *
            REG     0000H     0008H     ABSOLUTE     "REG BANK 0"
            DATA    0008H     0005H     UNIT         _DATA_GROUP_
                    000DH     0013H                  *** GAP ***
            BIT     0020H.0   0001H.1   UNIT         _BIT_GROUP_
            BIT     0021H.1   0000H.1   UNIT         ?BI?UART
            BIT     0021H.2   0000H.1   UNIT         ?BI?UART2
                    0021H.3   0000H.5                *** GAP ***
            IDATA   0022H     0001H     UNIT         ?STACK

            * * * * * * *  X D A T A   M E M O R Y  * * * * * * *
            XDATA   0000H     0403H     UNIT         ?XD?UART2
            XDATA   0403H     011CH     UNIT         ?XD?LORA
            XDATA   051FH     0069H     UNIT         ?XD?MAIN
            XDATA   0588H     0054H     UNIT         _XDATA_GROUP_
            XDATA   05DCH     0033H     UNIT         ?XD?ADC
            XDATA   060FH     0012H     UNIT         ?XD?UART
            XDATA   0621H     0009H     UNIT         ?XD?EEPROM
            XDATA   062AH     0008H     UNIT         ?XD?TIME3COUNT
            XDATA   0632H     0003H     UNIT         ?XD?_UARTSENDSTR?UART
            XDATA   0635H     0003H     UNIT         ?XD?_UART2SENDSTR?UART2
            XDATA   0638H     0003H     UNIT         ?XD?_LORA_SEND_COMMAND?LORA
            XDATA   063BH     0001H     UNIT         ?XD?LORA_NTN_REGSITER?LORA
            XDATA   063CH     0001H     UNIT         ?XD?LORA_CHOSE_NET_MODE?LORA
            XDATA   063DH     0001H     UNIT         ?XD?LORA_CHOSE_NTN_MODE?LORA
            XDATA   063EH     0001H     UNIT         ?XD?LORA_REGSITER?LORA
            XDATA   063FH     0001H     UNIT         ?XD?LORA_INIT_REGSITER?LORA

            * * * * * * *   C O D E   M E M O R Y   * * * * * * *
            CODE    0000H     0003H     ABSOLUTE     
            CODE    0003H     001FH     UNIT         ?PR?_DELAY_100MS?DELAY
                    0022H     0001H                  *** GAP ***
            CODE    0023H     0003H     ABSOLUTE     
            CODE    0026H     001DH     UNIT         ?PR?LORA_NTN_DISPALYREAD?LORA
            CODE    0043H     0003H     ABSOLUTE     
            CODE    0046H     0052H     UNIT         ?PR?_ADC_READ_CHANNEL?ADC
                    0098H     0003H                  *** GAP ***
            CODE    009BH     0003H     ABSOLUTE     
            CODE    009EH     09ECH     UNIT         ?C?LIB_CODE
            CODE    0A8AH     06BBH     UNIT         ?C_INITSEG
            CODE    1145H     0483H     UNIT         ?PR?PRINTF?PRINTF
            CODE    15C8H     047EH     UNIT         ?PR?MAIN?MAIN
            CODE    1A46H     02CDH     UNIT         ?PR?_GETBATTERYCAP?ADC
            CODE    1D13H     01B9H     UNIT         ?CO?LORA
            CODE    1ECCH     019EH     UNIT         ?PR?LORA_INIT_REGSITER?LORA
            CODE    206AH     0131H     UNIT         ?PR?LORA_REGSITER?LORA
            CODE    219BH     00EFH     UNIT         ?PR?UART2ISR?UART2
            CODE    228AH     00C7H     UNIT         ?PR?MCU_GET_STAND_MV_ACC?LORA
            CODE    2351H     00C6H     UNIT         ?PR?LORA_SEND_NET_DATA?LORA
            CODE    2417H     00C3H     UNIT         ?PR?LORA_WRITE_ID?LORA
            CODE    24DAH     00ADH     UNIT         ?PR?LORA_SEND_NET_DATA_IMPORTANT?LORA
            CODE    2587H     00ACH     UNIT         ?PR?LORA_NTN_REGSITER?LORA
            CODE    2633H     008CH     UNIT         ?C_C51STARTUP
            CODE    26BFH     006DH     UNIT         ?PR?ADC_READ?ADC
            CODE    272CH     006AH     UNIT         ?PR?UART1_SEND_ID_FLASH?UART
BL51 BANKED LINKER/LOCATER V6.22.2.0                                                  02/24/2021  13:50:53  PAGE 3


            CODE    2796H     0068H     UNIT         ?CO?UART
            CODE    27FEH     0066H     UNIT         ?PR?LORA_UART_WRITE_ID?LORA
            CODE    2864H     0066H     UNIT         ?PR?UART_WRITE_MV_ACC?LORA
            CODE    28CAH     0048H     UNIT         ?PR?UARTISR?UART
            CODE    2912H     0042H     UNIT         ?PR?_DELAY_1000MS?DELAY
            CODE    2954H     0040H     UNIT         ?PR?_LORA_SEND_COMMAND?LORA
            CODE    2994H     003CH     UNIT         ?PR?_SAVE_BATTERY_PERCENTAGE_TO_POWER?ADC
            CODE    29D0H     0039H     UNIT         ?CO?MAIN
            CODE    2A09H     0034H     UNIT         ?PR?LORA_DISPALYREAD?LORA
            CODE    2A3DH     0033H     UNIT         ?PR?_UARTSENDSTR?UART
            CODE    2A70H     0033H     UNIT         ?PR?_UART2SENDSTR?UART2
            CODE    2AA3H     0031H     UNIT         ?PR?MCU_READ_MV_ACC?LORA
            CODE    2AD4H     0031H     UNIT         ?PR?MCU_READ_ID?LORA
            CODE    2B05H     002CH     UNIT         ?PR?TM3_ISR?TIME3COUNT
            CODE    2B31H     002AH     UNIT         ?CO?ADC
            CODE    2B5BH     0023H     UNIT         ?PR?INITMPU6050?IIC
            CODE    2B7EH     001FH     UNIT         ?PR?_DELAY_MS?DELAY
            CODE    2B9DH     001CH     UNIT         ?PR?UARTINIT?UART
            CODE    2BB9H     001BH     UNIT         ?PR?RECVACK?IIC
            CODE    2BD4H     001AH     UNIT         ?PR?UART2INIT?UART2
            CODE    2BEEH     001AH     UNIT         ?PR?_IAPPROGRAM?EEPROM
            CODE    2C08H     0018H     UNIT         ?PR?_IAPREAD?EEPROM
            CODE    2C20H     0017H     UNIT         ?PR?_SINGLE_READI2C?IIC
            CODE    2C37H     0017H     UNIT         ?PR?GPIOINIT?TINIT
            CODE    2C4EH     0016H     UNIT         ?PR?_IAPERASE?EEPROM
            CODE    2C64H     0014H     UNIT         ?PR?LORA_CHOSE_NET_MODE?LORA
            CODE    2C78H     0014H     UNIT         ?PR?LORA_CHOSE_NTN_MODE?LORA
            CODE    2C8CH     0013H     UNIT         ?PR?DELAY?IIC
            CODE    2C9FH     0010H     UNIT         ?PR?TIMER6INIT?TIME3COUNT
            CODE    2CAFH     000FH     UNIT         ?PR?DELAY1000MS?DELAY
            CODE    2CBEH     000FH     UNIT         ?PR?RECVDATA?IIC
            CODE    2CCDH     000FH     UNIT         ?PR?SENDNAK?IIC
            CODE    2CDCH     000EH     UNIT         ?PR?DELAY100MS?DELAY
            CODE    2CEAH     000EH     UNIT         ?PR?_SENDDATA?IIC
            CODE    2CF8H     000EH     UNIT         ?PR?SENDACK?IIC
            CODE    2D06H     000EH     UNIT         ?PR?_SINGLE_WRITEI2C?IIC
            CODE    2D14H     000DH     UNIT         ?PR?BANDGAP_VOLTAGE?ADC
            CODE    2D21H     000DH     UNIT         ?PR?IAPIDLE?EEPROM
            CODE    2D2EH     000DH     UNIT         ?PR?_FABS?FABS
            CODE    2D3BH     000CH     UNIT         ?PR?_PUTCHAR?UART
            CODE    2D47H     000CH     UNIT         ?PR?WAIT?IIC
            CODE    2D53H     000CH     UNIT         ?PR?_ABS?ABS
            CODE    2D5FH     000BH     UNIT         ?PR?_WAIT_CONVERSION?ADC
            CODE    2D6AH     0009H     UNIT         ?PR?DELAY1MS?DELAY
            CODE    2D73H     0009H     UNIT         ?PR?START?IIC
            CODE    2D7CH     0009H     UNIT         ?PR?STOP?IIC
            CODE    2D85H     0008H     UNIT         ?PR?_UARTSEND?UART
            CODE    2D8DH     0008H     UNIT         ?PR?_UART2SEND?UART2



OVERLAY MAP OF MODULE:   .\Output\test166 (MAIN)


SEGMENT                                             BIT_GROUP          DATA_GROUP          XDATA_GROUP
  +--> CALLED SEGMENT                            START    LENGTH     START    LENGTH     START    LENGTH
--------------------------------------------------------------------------------------------------------
BL51 BANKED LINKER/LOCATER V6.22.2.0                                                  02/24/2021  13:50:53  PAGE 4


?PR?UART2ISR?UART2                               -----    -----      -----    -----      0588H    0002H

*** NEW ROOT ***************************************************

?C_C51STARTUP                                    -----    -----      -----    -----      -----    -----
  +--> ?PR?MAIN?MAIN
  +--> ?C_INITSEG

?PR?MAIN?MAIN                                    -----    -----      -----    -----      058AH    0020H
  +--> ?CO?MAIN
  +--> ?PR?UARTINIT?UART
  +--> ?PR?UART2INIT?UART2
  +--> ?PR?TIMER6INIT?TIME3COUNT
  +--> ?PR?GPIOINIT?TINIT
  +--> ?PR?_DELAY_100MS?DELAY
  +--> ?PR?INITMPU6050?IIC
  +--> ?PR?_SINGLE_READI2C?IIC
  +--> ?PR?_DELAY_1000MS?DELAY
  +--> ?PR?_SAVE_BATTERY_PERCENTAGE_TO_POWER...
  +--> ?PR?_FABS?FABS
  +--> ?PR?LORA_SEND_NET_DATA?LORA
  +--> ?PR?UART1_SEND_ID_FLASH?UART
  +--> ?PR?MCU_GET_STAND_MV_ACC?LORA
  +--> ?PR?PRINTF?PRINTF

?PR?_DELAY_100MS?DELAY                           -----    -----      -----    -----      -----    -----
  +--> ?PR?DELAY100MS?DELAY

?PR?INITMPU6050?IIC                              -----    -----      -----    -----      -----    -----
  +--> ?PR?_SINGLE_WRITEI2C?IIC

?PR?_SINGLE_WRITEI2C?IIC                         -----    -----      -----    -----      -----    -----
  +--> ?PR?RECVACK?IIC
  +--> ?PR?_SENDDATA?IIC
  +--> ?PR?STOP?IIC

?PR?RECVACK?IIC                                  -----    -----      -----    -----      -----    -----
  +--> ?PR?START?IIC
  +--> ?PR?_SENDDATA?IIC
  +--> ?PR?WAIT?IIC

?PR?START?IIC                                    -----    -----      -----    -----      -----    -----
  +--> ?PR?WAIT?IIC

?PR?_SENDDATA?IIC                                -----    -----      -----    -----      -----    -----
  +--> ?PR?WAIT?IIC

?PR?STOP?IIC                                     -----    -----      -----    -----      -----    -----
  +--> ?PR?WAIT?IIC

?PR?_SINGLE_READI2C?IIC                          -----    -----      -----    -----      -----    -----
  +--> ?PR?RECVACK?IIC
  +--> ?PR?START?IIC
  +--> ?PR?_SENDDATA?IIC
  +--> ?PR?RECVDATA?IIC
  +--> ?PR?SENDNAK?IIC
  +--> ?PR?STOP?IIC
BL51 BANKED LINKER/LOCATER V6.22.2.0                                                  02/24/2021  13:50:53  PAGE 5



?PR?RECVDATA?IIC                                 -----    -----      -----    -----      -----    -----
  +--> ?PR?WAIT?IIC

?PR?SENDNAK?IIC                                  -----    -----      -----    -----      -----    -----
  +--> ?PR?WAIT?IIC

?PR?_DELAY_1000MS?DELAY                          -----    -----      -----    -----      05AAH    0004H
  +--> ?PR?DELAY1000MS?DELAY

?PR?_SAVE_BATTERY_PERCENTAGE_TO_POWER...         -----    -----      -----    -----      -----    -----
  +--> ?PR?_ADC_READ_CHANNEL?ADC
  +--> ?PR?ADC_READ?ADC
  +--> ?PR?_GETBATTERYCAP?ADC
  +--> ?CO?ADC
  +--> ?PR?PRINTF?PRINTF

?PR?_ADC_READ_CHANNEL?ADC                        -----    -----      -----    -----      05AAH    0002H
  +--> ?PR?_WAIT_CONVERSION?ADC
  +--> ?CO?ADC
  +--> ?PR?PRINTF?PRINTF

?PR?PRINTF?PRINTF                                0020H.0  0001H.1    0008H    0005H      05ACH    0030H
  +--> ?PR?_PUTCHAR?UART

?PR?ADC_READ?ADC                                 -----    -----      -----    -----      -----    -----
  +--> ?CO?ADC
  +--> ?PR?PRINTF?PRINTF

?PR?_GETBATTERYCAP?ADC                           -----    -----      -----    -----      05AAH    001AH
  +--> ?PR?_ABS?ABS

?PR?LORA_SEND_NET_DATA?LORA                      -----    -----      -----    -----      -----    -----
  +--> ?PR?_IAPREAD?EEPROM
  +--> ?PR?_UART2SEND?UART2
  +--> ?CO?LORA
  +--> ?PR?PRINTF?PRINTF

?PR?_IAPREAD?EEPROM                              -----    -----      -----    -----      -----    -----
  +--> ?PR?IAPIDLE?EEPROM

?PR?UART1_SEND_ID_FLASH?UART                     -----    -----      -----    -----      -----    -----
  +--> ?PR?LORA_UART_WRITE_ID?LORA
  +--> ?CO?UART
  +--> ?PR?UART_WRITE_MV_ACC?LORA
  +--> ?PR?PRINTF?PRINTF
  +--> ?PR?_DELAY_MS?DELAY
  +--> ?PR?MCU_READ_ID?LORA
  +--> ?PR?MCU_READ_MV_ACC?LORA

?PR?LORA_UART_WRITE_ID?LORA                      -----    -----      -----    -----      -----    -----
  +--> ?PR?_IAPERASE?EEPROM
  +--> ?CO?LORA
  +--> ?PR?PRINTF?PRINTF
  +--> ?PR?_IAPPROGRAM?EEPROM
  +--> ?PR?MCU_READ_ID?LORA

BL51 BANKED LINKER/LOCATER V6.22.2.0                                                  02/24/2021  13:50:53  PAGE 6


?PR?_IAPERASE?EEPROM                             -----    -----      -----    -----      -----    -----
  +--> ?PR?IAPIDLE?EEPROM

?PR?_IAPPROGRAM?EEPROM                           -----    -----      -----    -----      -----    -----
  +--> ?PR?IAPIDLE?EEPROM

?PR?MCU_READ_ID?LORA                             -----    -----      -----    -----      -----    -----
  +--> ?PR?_IAPREAD?EEPROM

?PR?UART_WRITE_MV_ACC?LORA                       -----    -----      -----    -----      -----    -----
  +--> ?PR?_IAPERASE?EEPROM
  +--> ?CO?LORA
  +--> ?PR?PRINTF?PRINTF
  +--> ?PR?_IAPPROGRAM?EEPROM
  +--> ?PR?MCU_READ_MV_ACC?LORA

?PR?MCU_READ_MV_ACC?LORA                         -----    -----      -----    -----      -----    -----
  +--> ?PR?_IAPREAD?EEPROM

?PR?_DELAY_MS?DELAY                              -----    -----      -----    -----      -----    -----
  +--> ?PR?DELAY1MS?DELAY

?PR?MCU_GET_STAND_MV_ACC?LORA                    -----    -----      -----    -----      -----    -----
  +--> ?PR?MCU_READ_MV_ACC?LORA
  +--> ?CO?LORA
  +--> ?PR?PRINTF?PRINTF

?C_INITSEG                                       -----    -----      -----    -----      -----    -----
  +--> ?CO?LORA



SYMBOL TABLE OF MODULE:  .\Output\test166 (MAIN)

  VALUE           TYPE          NAME
  ----------------------------------

  -------         MODULE        MAIN
  C:0000H         SYMBOL        _ICE_DUMMY_
  D:0092H         PUBLIC        P1M0
  D:0091H         PUBLIC        P1M1
  D:0080H         PUBLIC        P0
  X:051FH         PUBLIC        mid_mv
  X:0521H         PUBLIC        acc_x
  D:0090H         PUBLIC        P1
  X:0523H         PUBLIC        acc_y
  D:00A0H         PUBLIC        P2
  X:0525H         PUBLIC        acc_z
  D:00B0H         PUBLIC        P3
  D:00C0H         PUBLIC        P4
  X:0527H         PUBLIC        usual_v
  D:00C8H         PUBLIC        P5
  B:00A8H.7       PUBLIC        EA
  D:00E8H         PUBLIC        P6
  X:052BH         PUBLIC        battery_percentage
  D:00F8H         PUBLIC        P7
  X:052DH         PUBLIC        res_x_record
BL51 BANKED LINKER/LOCATER V6.22.2.0                                                  02/24/2021  13:50:53  PAGE 7


  X:0531H         PUBLIC        res_y_record
  X:0535H         PUBLIC        res_z_record
  D:00BAH         PUBLIC        P_SW2
  D:00A8H         PUBLIC        IE
  X:0539H         PUBLIC        res_x_difference
  X:053DH         PUBLIC        reserved1
  X:053EH         PUBLIC        res_y_difference
  B:00A8H.4       PUBLIC        ES
  X:0542H         PUBLIC        reserved2
  X:0543H         PUBLIC        res_z_difference
  X:0547H         PUBLIC        res_xyz
  D:00B8H         PUBLIC        IP
  X:054BH         PUBLIC        reserved3
  D:00DEH         PUBLIC        ADCCFG
  X:054CH         PUBLIC        reserved4
  X:054DH         PUBLIC        state_data
  X:054EH         PUBLIC        res_x
  D:00D8H         PUBLIC        CCON
  X:0552H         PUBLIC        res_y
  X:0556H         PUBLIC        res_z
  C:15C8H         PUBLIC        main
  X:055AH         PUBLIC        acc_x_H
  X:055BH         PUBLIC        acc_y_H
  X:055CH         PUBLIC        acc_z_H
  X:055DH         PUBLIC        led_speed
  X:055EH         PUBLIC        acc_x_L
  X:055FH         PUBLIC        mv_transf_v
  X:0563H         PUBLIC        acc_y_L
  X:0564H         PUBLIC        acc_z_L
  X:0565H         PUBLIC        power
  D:00BCH         PUBLIC        ADC_CONTR
  B:0090H.2       PUBLIC        P12
  D:0098H         PUBLIC        SCON
  D:0088H         PUBLIC        TCON
  B:0090H.5       PUBLIC        P15
  X:0566H         PUBLIC        usual_acc
  B:0080H.7       PUBLIC        P07
  B:00A0H.6       PUBLIC        P26
  D:00AFH         PUBLIC        IE2
  X:056AH         PUBLIC        start_1
  C:29FBH         SYMBOL        _?ix1000
  X:056BH         PUBLIC        start_2
  C:2A05H         SYMBOL        _?ix1001
  X:056CH         PUBLIC        gyro_x_H
  X:056DH         PUBLIC        mid_acc
  X:056FH         PUBLIC        gyro_y_H
  X:0570H         PUBLIC        gyro_z_H
  X:0571H         PUBLIC        gyro_x_L
  X:0572H         PUBLIC        gyro_y_L
  X:0573H         PUBLIC        end_1
  X:0574H         PUBLIC        gyro_z_L
  X:0575H         PUBLIC        end_2
  X:0576H         PUBLIC        res_x_difference_transform
  X:057AH         PUBLIC        res_y_difference_transform
  X:057EH         PUBLIC        res_z_difference_transform
  X:0582H         PUBLIC        write_acc_transf_standard
  X:0586H         PUBLIC        important_no_response
BL51 BANKED LINKER/LOCATER V6.22.2.0                                                  02/24/2021  13:50:53  PAGE 8


  D:00D0H         PUBLIC        PSW
  X:0587H         PUBLIC        meassage_num
  -------         PROC          MAIN
  -------         DO            
  X:058AH         SYMBOL        chose_mode
  X:058BH         SYMBOL        sendtest
  X:058EH         SYMBOL        recvtest
  X:0598H         SYMBOL        p1
  X:059BH         SYMBOL        p2
  X:059EH         SYMBOL        judge_str
  X:05A2H         SYMBOL        transform_num
  X:05A4H         SYMBOL        num
  X:05A6H         SYMBOL        del_first_num
  -------         DO            
  X:05A8H         SYMBOL        counts
  -------         ENDDO         
  -------         ENDDO         
  C:15C8H         LINE#         70
  C:15C8H         LINE#         71
  C:15C8H         LINE#         74
  C:15D6H         LINE#         75
  C:15E9H         LINE#         76
  C:15FEH         LINE#         77
  C:160AH         LINE#         78
  C:161DH         LINE#         82
  C:1624H         LINE#         83
  C:1628H         LINE#         84
  C:162CH         LINE#         85
  C:162FH         LINE#         86
  C:1632H         LINE#         87
  C:1635H         LINE#         88
  C:1638H         LINE#         89
  C:163FH         LINE#         92
  C:1641H         LINE#         93
  C:1643H         LINE#         94
  C:1649H         LINE#         95
  C:164EH         LINE#         96
  C:1650H         LINE#         97
  C:1653H         LINE#         98
  C:1655H         LINE#         100
  C:1658H         LINE#         102
  C:165BH         LINE#         103
  C:1661H         LINE#         104
  C:1666H         LINE#         106
  C:1669H         LINE#         107
  C:1670H         LINE#         108
  C:1675H         LINE#         110
  C:1677H         LINE#         111
  C:167AH         LINE#         112
  C:167DH         LINE#         113
  C:1680H         LINE#         116
  C:168AH         LINE#         117
  C:1694H         LINE#         118
  C:169EH         LINE#         119
  C:16A8H         LINE#         120
  C:16B2H         LINE#         121
  C:16BCH         LINE#         124
BL51 BANKED LINKER/LOCATER V6.22.2.0                                                  02/24/2021  13:50:53  PAGE 9


  C:16BEH         LINE#         125
  C:16C5H         LINE#         126
  C:16C7H         LINE#         146
  C:16CEH         LINE#         147
  C:16D0H         LINE#         148
  C:16D2H         LINE#         149
  C:16D7H         LINE#         204
  C:16D7H         LINE#         206
  C:16E0H         LINE#         240
  C:16E0H         LINE#         242
  C:16E0H         LINE#         243
  C:16E6H         LINE#         245
  C:16F5H         LINE#         246
  C:170DH         LINE#         247
  C:172FH         LINE#         248
  C:1754H         LINE#         249
  C:176BH         LINE#         250
  C:177FH         LINE#         252
  C:178EH         LINE#         253
  C:17A6H         LINE#         254
  C:17C8H         LINE#         255
  C:17EDH         LINE#         256
  C:1804H         LINE#         257
  C:1818H         LINE#         259
  C:1827H         LINE#         260
  C:183FH         LINE#         261
  C:1861H         LINE#         262
  C:1886H         LINE#         263
  C:189DH         LINE#         264
  C:18B1H         LINE#         265
  C:1924H         LINE#         266
  C:192AH         LINE#         267
  C:192DH         LINE#         269
  C:192DH         LINE#         270
  C:1937H         LINE#         271
  C:1941H         LINE#         272
  C:194BH         LINE#         273
  C:1955H         LINE#         274
  C:195FH         LINE#         275
  C:1969H         LINE#         276
  C:1971H         LINE#         278
  C:1971H         LINE#         280
  C:1980H         LINE#         281
  C:1980H         LINE#         282
  C:198EH         LINE#         283
  C:199CH         LINE#         284
  C:19A3H         LINE#         285
  C:19A3H         LINE#         286
  C:19B2H         LINE#         287
  C:19B6H         LINE#         290
  C:19B9H         LINE#         291
  C:19BCH         LINE#         292
  C:19C2H         LINE#         297
  C:19C9H         LINE#         301
  C:19D0H         LINE#         304
  C:19D9H         LINE#         305
  C:19DEH         LINE#         306
BL51 BANKED LINKER/LOCATER V6.22.2.0                                                  02/24/2021  13:50:53  PAGE 10


  C:19E1H         LINE#         317
  C:19E3H         LINE#         319
  C:19E3H         LINE#         322
  C:19F2H         LINE#         323
  C:19F2H         LINE#         324
  C:19F6H         LINE#         325
  C:19FCH         LINE#         326
  C:1A01H         LINE#         327
  C:1A04H         LINE#         328
  C:1A0DH         LINE#         329
  C:1A0DH         LINE#         356
  C:1A0DH         LINE#         359
  C:1A0DH         LINE#         360
  C:1A18H         LINE#         361
  C:1A20H         LINE#         362
  C:1A20H         LINE#         363
  C:1A22H         LINE#         364
  C:1A29H         LINE#         365
  C:1A37H         LINE#         366
  C:1A3EH         LINE#         367
  C:1A43H         LINE#         368
  C:1A43H         LINE#         370
  -------         ENDPROC       MAIN
  -------         ENDMOD        MAIN

  -------         MODULE        UART
  C:0000H         SYMBOL        _ICE_DUMMY_
  D:0080H         PUBLIC        P0
  D:0090H         PUBLIC        P1
  D:00A0H         PUBLIC        P2
  D:00B0H         PUBLIC        P3
  D:00C0H         PUBLIC        P4
  D:00C8H         PUBLIC        P5
  D:00E8H         PUBLIC        P6
  D:00F8H         PUBLIC        P7
  D:00A8H         PUBLIC        IE
  D:00B8H         PUBLIC        IP
  B:0098H.0       PUBLIC        RI
  C:272CH         PUBLIC        uart1_send_id_flash
  B:0098H.1       PUBLIC        TI
  D:00D8H         PUBLIC        CCON
  C:2D85H         PUBLIC        _UartSend
  D:0099H         PUBLIC        SBUF
  D:0098H         PUBLIC        SCON
  C:2B9DH         PUBLIC        UartInit
  D:0089H         PUBLIC        TMOD
  D:0088H         PUBLIC        TCON
  D:008EH         PUBLIC        AUXR
  B:0021H.1       PUBLIC        busy
  X:060FH         PUBLIC        rptr
  D:008DH         PUBLIC        TH1
  C:28CAH         PUBLIC        UartIsr
  X:0610H         PUBLIC        wptr
  D:008BH         PUBLIC        TL1
  B:0088H.6       PUBLIC        TR1
  C:2A3DH         PUBLIC        _UartSendStr
  D:00D0H         PUBLIC        PSW
BL51 BANKED LINKER/LOCATER V6.22.2.0                                                  02/24/2021  13:50:53  PAGE 11


  C:2D3BH         PUBLIC        _putchar
  X:0611H         PUBLIC        buffer
  -------         PROC          _UARTSEND
  D:0007H         SYMBOL        dat
  C:2D85H         LINE#         8
  C:2D85H         LINE#         9
  C:2D85H         LINE#         10
  C:2D88H         LINE#         11
  C:2D8AH         LINE#         12
  C:2D8CH         LINE#         13
  -------         ENDPROC       _UARTSEND
  -------         PROC          _PUTCHAR
  D:0007H         SYMBOL        ch
  C:2D3BH         LINE#         14
  C:2D3BH         LINE#         15
  C:2D3BH         LINE#         16
  C:2D3DH         LINE#         17
  C:2D3FH         LINE#         18
  C:2D42H         LINE#         19
  C:2D44H         LINE#         20
  C:2D46H         LINE#         21
  -------         ENDPROC       _PUTCHAR
  -------         PROC          _UARTSENDSTR
  X:0632H         SYMBOL        p
  C:2A3DH         LINE#         23
  C:2A48H         LINE#         24
  C:2A48H         LINE#         25
  C:2A58H         LINE#         26
  C:2A58H         LINE#         27
  C:2A6DH         LINE#         28
  C:2A6FH         LINE#         29
  -------         ENDPROC       _UARTSENDSTR
  -------         PROC          UARTISR
  C:28CAH         LINE#         31
  C:28D9H         LINE#         33
  C:28DCH         LINE#         34
  C:28DCH         LINE#         35
  C:28DEH         LINE#         36
  C:28E0H         LINE#         37
  C:28E0H         LINE#         38
  C:28E3H         LINE#         39
  C:28E3H         LINE#         40
  C:28E5H         LINE#         41
  C:28FEH         LINE#         42
  C:2905H         LINE#         43
  C:2905H         LINE#         44
  -------         ENDPROC       UARTISR
  -------         PROC          UARTINIT
  C:2B9DH         LINE#         46
  C:2B9DH         LINE#         47
  C:2B9DH         LINE#         48
  C:2BA0H         LINE#         49
  C:2BA3H         LINE#         50
  C:2BA6H         LINE#         51
  C:2BA9H         LINE#         52
  C:2BABH         LINE#         53
  C:2BAEH         LINE#         54
BL51 BANKED LINKER/LOCATER V6.22.2.0                                                  02/24/2021  13:50:53  PAGE 12


  C:2BB2H         LINE#         55
  C:2BB6H         LINE#         56
  C:2BB8H         LINE#         57
  -------         ENDPROC       UARTINIT
  -------         PROC          UART1_SEND_ID_FLASH
  C:272CH         LINE#         60
  C:272CH         LINE#         70
  C:273CH         LINE#         71
  C:273CH         LINE#         72
  C:273FH         LINE#         73
  C:2745H         LINE#         74
  C:2745H         LINE#         76
  C:2757H         LINE#         77
  C:275AH         LINE#         78
  C:2763H         LINE#         79
  C:276AH         LINE#         80
  C:276CH         LINE#         81
  C:276CH         LINE#         82
  C:276FH         LINE#         83
  C:2772H         LINE#         84
  C:277BH         LINE#         85
  C:2784H         LINE#         86
  C:2784H         LINE#         87
  C:2789H         LINE#         88
  -------         ENDPROC       UART1_SEND_ID_FLASH
  -------         ENDMOD        UART

  -------         MODULE        DELAY
  C:0000H         SYMBOL        _ICE_DUMMY_
  D:0080H         PUBLIC        P0
  D:0090H         PUBLIC        P1
  D:00A0H         PUBLIC        P2
  D:00B0H         PUBLIC        P3
  D:00C0H         PUBLIC        P4
  C:2D6AH         PUBLIC        Delay1ms
  D:00C8H         PUBLIC        P5
  D:00E8H         PUBLIC        P6
  D:00F8H         PUBLIC        P7
  D:00A8H         PUBLIC        IE
  C:2912H         PUBLIC        _delay_1000ms
  C:2CAFH         PUBLIC        Delay1000ms
  D:00B8H         PUBLIC        IP
  D:00D8H         PUBLIC        CCON
  D:0098H         PUBLIC        SCON
  D:0088H         PUBLIC        TCON
  C:2B7EH         PUBLIC        _delay_ms
  C:0003H         PUBLIC        _delay_100ms
  C:2CDCH         PUBLIC        Delay100ms
  D:00D0H         PUBLIC        PSW
  -------         PROC          DELAY100MS
  -------         DO            
  D:0007H         SYMBOL        i
  D:0006H         SYMBOL        j
  D:0005H         SYMBOL        k
  -------         ENDDO         
  C:2CDCH         LINE#         2
  C:2CDCH         LINE#         3
BL51 BANKED LINKER/LOCATER V6.22.2.0                                                  02/24/2021  13:50:53  PAGE 13


  C:2CDCH         LINE#         5
  C:2CDDH         LINE#         6
  C:2CDFH         LINE#         7
  C:2CE1H         LINE#         8
  C:2CE3H         LINE#         10
  C:2CE3H         LINE#         12
  C:2CE3H         LINE#         13
  C:2CE5H         LINE#         14
  C:2CE7H         LINE#         15
  C:2CE9H         LINE#         16
  -------         ENDPROC       DELAY100MS
  -------         PROC          _DELAY_100MS
  D:0002H         SYMBOL        t
  -------         DO            
  D:0082H         SYMBOL        i
  -------         ENDDO         
  C:0003H         LINE#         18
  C:0007H         LINE#         19
  C:0007H         LINE#         20
  C:0007H         LINE#         21
  C:001BH         LINE#         22
  C:001BH         LINE#         23
  C:001EH         LINE#         24
  C:0021H         LINE#         25
  -------         ENDPROC       _DELAY_100MS
  -------         PROC          _DELAY_1000MS
  X:05AAH         SYMBOL        t
  -------         DO            
  X:05ACH         SYMBOL        i
  -------         ENDDO         
  C:2912H         LINE#         26
  C:291AH         LINE#         27
  C:291AH         LINE#         28
  C:291FH         LINE#         29
  C:2940H         LINE#         30
  C:2940H         LINE#         31
  C:2943H         LINE#         32
  C:2953H         LINE#         33
  -------         ENDPROC       _DELAY_1000MS
  -------         PROC          DELAY1000MS
  -------         DO            
  D:0007H         SYMBOL        i
  D:0006H         SYMBOL        j
  D:0005H         SYMBOL        k
  -------         ENDDO         
  C:2CAFH         LINE#         35
  C:2CAFH         LINE#         36
  C:2CAFH         LINE#         39
  C:2CB0H         LINE#         40
  C:2CB1H         LINE#         41
  C:2CB3H         LINE#         42
  C:2CB5H         LINE#         43
  C:2CB7H         LINE#         45
  C:2CB7H         LINE#         47
  C:2CB7H         LINE#         48
  C:2CB9H         LINE#         49
  C:2CBBH         LINE#         50
BL51 BANKED LINKER/LOCATER V6.22.2.0                                                  02/24/2021  13:50:53  PAGE 14


  C:2CBDH         LINE#         51
  -------         ENDPROC       DELAY1000MS
  -------         PROC          DELAY1MS
  -------         DO            
  D:0007H         SYMBOL        i
  D:0006H         SYMBOL        j
  -------         ENDDO         
  C:2D6AH         LINE#         53
  C:2D6AH         LINE#         54
  C:2D6AH         LINE#         57
  C:2D6CH         LINE#         58
  C:2D6EH         LINE#         60
  C:2D6EH         LINE#         61
  C:2D70H         LINE#         62
  C:2D72H         LINE#         63
  -------         ENDPROC       DELAY1MS
  -------         PROC          _DELAY_MS
  D:0004H         SYMBOL        t
  -------         DO            
  D:0002H         SYMBOL        i
  -------         ENDDO         
  C:2B7EH         LINE#         65
  C:2B82H         LINE#         66
  C:2B82H         LINE#         67
  C:2B85H         LINE#         68
  C:2B92H         LINE#         69
  C:2B92H         LINE#         70
  C:2B95H         LINE#         71
  C:2B9CH         LINE#         72
  -------         ENDPROC       _DELAY_MS
  -------         ENDMOD        DELAY

  -------         MODULE        IIC
  C:0000H         SYMBOL        _ICE_DUMMY_
  D:0080H         PUBLIC        P0
  D:0090H         PUBLIC        P1
  D:00A0H         PUBLIC        P2
  D:00B0H         PUBLIC        P3
  C:2C20H         PUBLIC        _Single_ReadI2C
  D:00C0H         PUBLIC        P4
  D:00C8H         PUBLIC        P5
  D:00E8H         PUBLIC        P6
  D:00F8H         PUBLIC        P7
  C:2CEAH         PUBLIC        _SendData
  D:00A8H         PUBLIC        IE
  C:2CBEH         PUBLIC        RecvData
  C:2D73H         PUBLIC        Start
  C:2D06H         PUBLIC        _Single_WriteI2C
  C:2D47H         PUBLIC        Wait
  D:00B8H         PUBLIC        IP
  D:00D8H         PUBLIC        CCON
  C:2D7CH         PUBLIC        Stop
  D:0098H         PUBLIC        SCON
  D:0088H         PUBLIC        TCON
  C:2B5BH         PUBLIC        InitMPU6050
  C:2CF8H         PUBLIC        SendACK
  C:2BCBH         PUBLIC        RecvACK
BL51 BANKED LINKER/LOCATER V6.22.2.0                                                  02/24/2021  13:50:53  PAGE 15


  C:2CCDH         PUBLIC        SendNAK
  C:2C8CH         PUBLIC        Delay
  D:00D0H         PUBLIC        PSW
  -------         PROC          WAIT
  C:2D47H         LINE#         2
  C:2D47H         LINE#         3
  C:2D47H         LINE#         4
  C:2D4EH         LINE#         5
  C:2D52H         LINE#         6
  -------         ENDPROC       WAIT
  -------         PROC          START
  C:2D73H         LINE#         8
  C:2D73H         LINE#         9
  C:2D73H         LINE#         10
  C:2D79H         LINE#         11
  -------         ENDPROC       START
  -------         PROC          _SENDDATA
  D:0007H         SYMBOL        dat
  C:2CEAH         LINE#         14
  C:2CEAH         LINE#         15
  C:2CEAH         LINE#         16
  C:2CEFH         LINE#         17
  C:2CF5H         LINE#         18
  -------         ENDPROC       _SENDDATA
  -------         PROC          L?0019
  -------         ENDPROC       L?0019
  -------         PROC          RECVACK
  C:2BCBH         LINE#         21
  C:2BCBH         LINE#         22
  C:2BCBH         LINE#         23
  C:2BD1H         LINE#         24
  -------         ENDPROC       RECVACK
  -------         PROC          RECVDATA
  C:2CBEH         LINE#         27
  C:2CBEH         LINE#         28
  C:2CBEH         LINE#         29
  C:2CC4H         LINE#         30
  C:2CC7H         LINE#         31
  C:2CCCH         LINE#         32
  -------         ENDPROC       RECVDATA
  -------         PROC          SENDACK
  C:2CF8H         LINE#         34
  C:2CF8H         LINE#         35
  C:2CF8H         LINE#         36
  C:2CFDH         LINE#         37
  C:2D03H         LINE#         38
  -------         ENDPROC       SENDACK
  -------         PROC          SENDNAK
  C:2CCDH         LINE#         41
  C:2CCDH         LINE#         42
  C:2CCDH         LINE#         43
  C:2CD3H         LINE#         44
  C:2CD9H         LINE#         45
  -------         ENDPROC       SENDNAK
  -------         PROC          STOP
  C:2D7CH         LINE#         48
  C:2D7CH         LINE#         49
BL51 BANKED LINKER/LOCATER V6.22.2.0                                                  02/24/2021  13:50:53  PAGE 16


  C:2D7CH         LINE#         50
  C:2D82H         LINE#         51
  -------         ENDPROC       STOP
  -------         PROC          DELAY
  -------         DO            
  D:0006H         SYMBOL        i
  -------         ENDDO         
  C:2C8CH         LINE#         54
  C:2C8CH         LINE#         55
  C:2C8CH         LINE#         58
  C:2C8FH         LINE#         59
  C:2C8FH         LINE#         60
  C:2C90H         LINE#         61
  C:2C91H         LINE#         62
  C:2C92H         LINE#         63
  C:2C93H         LINE#         64
  C:2C9EH         LINE#         65
  -------         ENDPROC       DELAY
  -------         PROC          INITMPU6050
  C:2B5BH         LINE#         70
  C:2B5BH         LINE#         71
  C:2B5BH         LINE#         72
  C:2B62H         LINE#         73
  C:2B69H         LINE#         74
  C:2B70H         LINE#         75
  C:2B77H         LINE#         76
  -------         ENDPROC       INITMPU6050
  -------         PROC          _SINGLE_WRITEI2C
  D:0006H         SYMBOL        REG_Address
  D:0005H         SYMBOL        REG_data
  C:2D06H         LINE#         82
  C:2D06H         LINE#         83
  C:2D06H         LINE#         84
  C:2D06H         LINE#         85
  C:2D06H         LINE#         86
  C:2D06H         LINE#         87
  C:2D06H         LINE#         88
  C:2D09H         LINE#         89
  C:2D0EH         LINE#         90
  C:2D11H         LINE#         91
  -------         ENDPROC       _SINGLE_WRITEI2C
  -------         PROC          _SINGLE_READI2C
  D:0006H         SYMBOL        REG_Address
  -------         DO            
  D:0007H         SYMBOL        REG_data
  -------         ENDDO         
  C:2C20H         LINE#         98
  C:2C20H         LINE#         99
  C:2C20H         LINE#         101
  C:2C20H         LINE#         102
  C:2C20H         LINE#         103
  C:2C20H         LINE#         104
  C:2C20H         LINE#         105
  C:2C23H         LINE#         106
  C:2C26H         LINE#         108
  C:2C2BH         LINE#         109
  C:2C2EH         LINE#         110
BL51 BANKED LINKER/LOCATER V6.22.2.0                                                  02/24/2021  13:50:53  PAGE 17


  C:2C31H         LINE#         111
  C:2C34H         LINE#         112
  -------         ENDPROC       _SINGLE_READI2C
  -------         ENDMOD        IIC

  -------         MODULE        ADC
  C:0000H         SYMBOL        _ICE_DUMMY_
  D:0080H         PUBLIC        P0
  D:0090H         PUBLIC        P1
  D:00A0H         PUBLIC        P2
  D:00B0H         PUBLIC        P3
  D:00C0H         PUBLIC        P4
  D:00C8H         PUBLIC        P5
  D:00E8H         PUBLIC        P6
  D:00F8H         PUBLIC        P7
  D:00A8H         PUBLIC        IE
  D:00BDH         PUBLIC        ADC_RES
  D:00B8H         PUBLIC        IP
  D:00D8H         PUBLIC        CCON
  C:2D14H         PUBLIC        bandgap_voltage
  X:05DCH         PUBLIC        adc_result
  D:00BCH         PUBLIC        ADC_CONTR
  D:0098H         PUBLIC        SCON
  D:0088H         PUBLIC        TCON
  C:1A46H         PUBLIC        _getBatteryCap
  X:05E0H         PUBLIC        volt2CapLot
  C:2D5FH         SYMBOL        _wait_conversion
  C:26BFH         PUBLIC        ADC_read
  X:060CH         PUBLIC        adc_num
  X:060EH         PUBLIC        adc_date1
  D:00BEH         PUBLIC        ADC_RESL
  C:0046H         PUBLIC        _adc_read_channel
  C:2994H         PUBLIC        _save_battery_percentage_to_power
  D:00D0H         PUBLIC        PSW
  -------         PROC          ADC_READ
  C:26BFH         LINE#         33
  C:26BFH         LINE#         34
  C:26BFH         LINE#         44
  C:270FH         LINE#         46
  -------         ENDPROC       ADC_READ
  -------         PROC          _SAVE_BATTERY_PERCENTAGE_TO_POWER
  D:0007H         SYMBOL        channel
  C:2994H         LINE#         51
  C:2994H         LINE#         52
  C:2994H         LINE#         53
  C:299FH         LINE#         54
  C:29A2H         LINE#         55
  C:29BBH         LINE#         56
  C:29BFH         LINE#         57
  -------         ENDPROC       _SAVE_BATTERY_PERCENTAGE_TO_POWER
  -------         PROC          _GETBATTERYCAP
  X:05AAH         SYMBOL        volt
  -------         DO            
  X:05AEH         SYMBOL        a1
  X:05B0H         SYMBOL        a2
  X:05B2H         SYMBOL        b1
  X:05B4H         SYMBOL        b2
BL51 BANKED LINKER/LOCATER V6.22.2.0                                                  02/24/2021  13:50:53  PAGE 18


  X:05B6H         SYMBOL        x
  X:05B8H         SYMBOL        A
  X:05BCH         SYMBOL        B
  D:0004H         SYMBOL        y
  X:05C0H         SYMBOL        out
  X:05C2H         SYMBOL        i
  -------         ENDDO         
  C:1A46H         LINE#         63
  C:1A4CH         LINE#         64
  C:1A4CH         LINE#         69
  C:1A6FH         LINE#         76
  C:1A86H         LINE#         77
  C:1A86H         LINE#         78
  C:1A8BH         LINE#         79
  C:1A8BH         LINE#         80
  C:1AAAH         LINE#         81
  C:1AAAH         LINE#         82
  C:1AAEH         LINE#         83
  C:1AAEH         LINE#         85
  C:1ACAH         LINE#         86
  C:1ACAH         LINE#         87
  C:1AFFH         LINE#         88
  C:1AFFH         LINE#         89
  C:1B16H         LINE#         90
  C:1B16H         LINE#         91
  C:1B86H         LINE#         92
  C:1B86H         LINE#         93
  C:1BA4H         LINE#         94
  C:1BB5H         LINE#         95
  C:1BDFH         LINE#         96
  C:1BF8H         LINE#         97
  C:1C2BH         LINE#         98
  C:1C82H         LINE#         99
  C:1CB0H         LINE#         100
  C:1CBBH         LINE#         101
  C:1CD7H         LINE#         102
  C:1CF7H         LINE#         105
  C:1CF9H         LINE#         106
  C:1CF9H         LINE#         107
  C:1D0AH         LINE#         108
  C:1D12H         LINE#         109
  -------         ENDPROC       _GETBATTERYCAP
  -------         PROC          _WAIT_CONVERSION
  C:2D5FH         LINE#         112
  C:2D5FH         LINE#         113
  C:2D5FH         LINE#         114
  C:2D64H         LINE#         116
  C:2D64H         LINE#         117
  C:2D69H         LINE#         118
  -------         ENDPROC       _WAIT_CONVERSION
  -------         PROC          _ADC_READ_CHANNEL
  D:0007H         SYMBOL        channel
  -------         DO            
  X:05AAH         SYMBOL        val
  -------         ENDDO         
  C:0046H         LINE#         121
  C:0046H         LINE#         122
BL51 BANKED LINKER/LOCATER V6.22.2.0                                                  02/24/2021  13:50:53  PAGE 19


  C:0046H         LINE#         123
  C:004DH         LINE#         124
  C:0051H         LINE#         126
  C:0054H         LINE#         127
  C:0057H         LINE#         128
  C:0060H         LINE#         129
  C:0061H         LINE#         130
  C:0062H         LINE#         131
  C:0065H         LINE#         132
  C:0077H         LINE#         134
  C:008FH         LINE#         135
  C:0097H         LINE#         136
  -------         ENDPROC       _ADC_READ_CHANNEL
  -------         PROC          BANDGAP_VOLTAGE
  -------         DO            
  D:0001H         SYMBOL        bgv
  -------         ENDDO         
  C:2D14H         LINE#         138
  C:2D14H         LINE#         140
  C:2D1AH         LINE#         143
  C:2D20H         LINE#         144
  -------         ENDPROC       BANDGAP_VOLTAGE
  -------         ENDMOD        ADC

  -------         MODULE        TINIT
  C:0000H         SYMBOL        _ICE_DUMMY_
  D:0092H         PUBLIC        P1M0
  D:0093H         PUBLIC        P0M1
  D:0096H         PUBLIC        P2M0
  D:0091H         PUBLIC        P1M1
  D:0080H         PUBLIC        P0
  D:0095H         PUBLIC        P2M1
  D:0090H         PUBLIC        P1
  D:00A0H         PUBLIC        P2
  D:00B0H         PUBLIC        P3
  D:00C0H         PUBLIC        P4
  D:00C8H         PUBLIC        P5
  D:00E8H         PUBLIC        P6
  D:00F8H         PUBLIC        P7
  D:00A8H         PUBLIC        IE
  D:00B8H         PUBLIC        IP
  D:00D8H         PUBLIC        CCON
  B:0090H.2       PUBLIC        P12
  D:0098H         PUBLIC        SCON
  B:0090H.3       PUBLIC        P13
  D:0088H         PUBLIC        TCON
  C:2C37H         PUBLIC        gpioInit
  D:00D0H         PUBLIC        PSW
  D:0094H         PUBLIC        P0M0
  -------         PROC          GPIOINIT
  C:2C37H         LINE#         4
  C:2C37H         LINE#         5
  C:2C37H         LINE#         6
  C:2C3AH         LINE#         7
  C:2C3DH         LINE#         8
  C:2C40H         LINE#         9
  C:2C43H         LINE#         10
BL51 BANKED LINKER/LOCATER V6.22.2.0                                                  02/24/2021  13:50:53  PAGE 20


  C:2C46H         LINE#         11
  C:2C49H         LINE#         17
  C:2C4BH         LINE#         18
  C:2C4DH         LINE#         24
  -------         ENDPROC       GPIOINIT
  -------         ENDMOD        TINIT

  -------         MODULE        UART2
  C:0000H         SYMBOL        _ICE_DUMMY_
  D:0080H         PUBLIC        P0
  C:219BH         PUBLIC        Uart2Isr
  D:0090H         PUBLIC        P1
  D:00A0H         PUBLIC        P2
  X:0000H         PUBLIC        wptr2
  D:00B0H         PUBLIC        P3
  D:00C0H         PUBLIC        P4
  D:00C8H         PUBLIC        P5
  D:00E8H         PUBLIC        P6
  D:00F8H         PUBLIC        P7
  D:00A8H         PUBLIC        IE
  C:2A70H         PUBLIC        _Uart2SendStr
  D:00B8H         PUBLIC        IP
  D:00D8H         PUBLIC        CCON
  X:0002H         PUBLIC        buffer2
  D:0098H         PUBLIC        SCON
  D:0088H         PUBLIC        TCON
  D:008EH         PUBLIC        AUXR
  D:00D6H         PUBLIC        T2H
  D:00D7H         PUBLIC        T2L
  C:2D8DH         PUBLIC        _Uart2Send
  D:009BH         PUBLIC        S2BUF
  D:009AH         PUBLIC        S2CON
  C:2BD4H         PUBLIC        Uart2Init
  B:0021H.2       PUBLIC        busy2
  D:00D0H         PUBLIC        PSW
  X:0402H         PUBLIC        rptr2
  -------         PROC          UART2ISR
  -------         DO            
  X:0588H         SYMBOL        i
  -------         ENDDO         
  C:219BH         LINE#         8
  C:21B8H         LINE#         10
  C:21BFH         LINE#         11
  C:21C4H         LINE#         12
  C:21C4H         LINE#         13
  C:21C7H         LINE#         14
  C:21C9H         LINE#         15
  C:21C9H         LINE#         16
  C:21D1H         LINE#         17
  C:21D1H         LINE#         18
  C:21D4H         LINE#         19
  C:21EDH         LINE#         20
  C:220AH         LINE#         21
  C:2240H         LINE#         22
  C:2240H         LINE#         23
  C:2245H         LINE#         24
  C:224BH         LINE#         25
BL51 BANKED LINKER/LOCATER V6.22.2.0                                                  02/24/2021  13:50:53  PAGE 21


  C:2258H         LINE#         26
  C:2258H         LINE#         27
  C:2268H         LINE#         28
  C:226FH         LINE#         29
  C:226FH         LINE#         30
  -------         ENDPROC       UART2ISR
  -------         PROC          UART2INIT
  C:2BD4H         LINE#         32
  C:2BD4H         LINE#         33
  C:2BD4H         LINE#         34
  C:2BD7H         LINE#         35
  C:2BDAH         LINE#         36
  C:2BDDH         LINE#         37
  C:2BE0H         LINE#         39
  C:2BE7H         LINE#         40
  C:2BEBH         LINE#         41
  C:2BEDH         LINE#         42
  -------         ENDPROC       UART2INIT
  -------         PROC          _UART2SEND
  D:0007H         SYMBOL        dat
  C:2D8DH         LINE#         44
  C:2D8DH         LINE#         45
  C:2D8DH         LINE#         46
  C:2D90H         LINE#         47
  C:2D92H         LINE#         48
  C:2D94H         LINE#         49
  -------         ENDPROC       _UART2SEND
  -------         PROC          _UART2SENDSTR
  X:0635H         SYMBOL        p
  C:2A70H         LINE#         51
  C:2A7BH         LINE#         52
  C:2A7BH         LINE#         53
  C:2A8BH         LINE#         54
  C:2A8BH         LINE#         55
  C:2AA0H         LINE#         56
  C:2AA2H         LINE#         57
  -------         ENDPROC       _UART2SENDSTR
  -------         ENDMOD        UART2

  -------         MODULE        TIME3COUNT
  C:0000H         SYMBOL        _ICE_DUMMY_
  D:0080H         PUBLIC        P0
  D:0090H         PUBLIC        P1
  D:00A0H         PUBLIC        P2
  D:00B0H         PUBLIC        P3
  D:00C0H         PUBLIC        P4
  D:00C8H         PUBLIC        P5
  D:00E8H         PUBLIC        P6
  D:00F8H         PUBLIC        P7
  X:062AH         PUBLIC        measure_time
  D:00A8H         PUBLIC        IE
  X:062CH         PUBLIC        ctime
  D:00B8H         PUBLIC        IP
  X:062EH         PUBLIC        ctime_1s
  D:00D8H         PUBLIC        CCON
  D:0098H         PUBLIC        SCON
  D:0088H         PUBLIC        TCON
BL51 BANKED LINKER/LOCATER V6.22.2.0                                                  02/24/2021  13:50:53  PAGE 22


  D:00AFH         PUBLIC        IE2
  D:00D4H         PUBLIC        T3H
  C:2C9FH         PUBLIC        Timer6Init
  D:00D5H         PUBLIC        T3L
  D:00D1H         PUBLIC        T4T3M
  C:2B05H         PUBLIC        TM3_Isr
  D:00EFH         PUBLIC        AUXINTIF
  X:0630H         PUBLIC        send_important_ctime_1s
  D:00D0H         PUBLIC        PSW
  -------         PROC          TIMER6INIT
  C:2C9FH         LINE#         9
  C:2C9FH         LINE#         10
  C:2C9FH         LINE#         14
  C:2CA2H         LINE#         15
  C:2CA5H         LINE#         16
  C:2CA8H         LINE#         18
  C:2CABH         LINE#         19
  C:2CAEH         LINE#         20
  -------         ENDPROC       TIMER6INIT
  -------         PROC          TM3_ISR
  C:2B05H         LINE#         22
  C:2B0BH         LINE#         24
  C:2B19H         LINE#         25
  C:2B27H         LINE#         28
  C:2B2AH         LINE#         29
  -------         ENDPROC       TM3_ISR
  -------         ENDMOD        TIME3COUNT

  -------         MODULE        LORA
  C:0000H         SYMBOL        _ICE_DUMMY_
  D:0080H         PUBLIC        P0
  D:0090H         PUBLIC        P1
  D:00A0H         PUBLIC        P2
  D:00B0H         PUBLIC        P3
  D:00C0H         PUBLIC        P4
  X:0403H         PUBLIC        lora_ntn_mod
  D:00C8H         PUBLIC        P5
  D:00E8H         PUBLIC        P6
  D:00F8H         PUBLIC        P7
  X:040FH         PUBLIC        _setip
  X:0414H         PUBLIC        lora_setrprem
  X:0424H         PUBLIC        lora_config
  C:2A09H         PUBLIC        lora_dispalyRead
  C:27FEH         PUBLIC        lora_uart_write_id
  D:00A8H         PUBLIC        IE
  X:0428H         PUBLIC        lora_ntn_riq
  X:0434H         PUBLIC        _cfg
  C:2AA3H         PUBLIC        mcu_read_mv_acc
  C:1ECCH         PUBLIC        lora_init_regsiter
  D:00B8H         PUBLIC        IP
  C:2864H         PUBLIC        uart_write_mv_acc
  X:0439H         PUBLIC        lora_setlcp
  X:0447H         PUBLIC        lora_config_end
  D:00D8H         PUBLIC        CCON
  C:24DAH         PUBLIC        lora_send_net_data_important
  X:044DH         PUBLIC        _id
  X:0452H         PUBLIC        lora_settsf
BL51 BANKED LINKER/LOCATER V6.22.2.0                                                  02/24/2021  13:50:53  PAGE 23


  X:045EH         PUBLIC        lora_addr
  C:2587H         PUBLIC        lora_ntn_regsiter
  B:0090H.2       PUBLIC        P12
  C:228AH         PUBLIC        mcu_get_stand_mv_acc
  D:0098H         PUBLIC        SCON
  D:0088H         PUBLIC        TCON
  X:0469H         PUBLIC        lora_setpow
  X:0475H         PUBLIC        lora_setip
  X:0481H         PUBLIC        lora_bate_230400
  X:048FH         PUBLIC        lora_bate_115200
  X:049DH         PUBLIC        lora_help
  C:0026H         PUBLIC        lora_ntn_dispalyRead
  X:04A3H         PUBLIC        lora_cfg
  X:04ADH         PUBLIC        report_has_reply
  X:04AEH         PUBLIC        lora_setfnboff
  X:04BAH         PUBLIC        _module_version
  C:2C64H         PUBLIC        lora_chose_net_mode
  X:04BFH         PUBLIC        lora_id
  X:04C8H         PUBLIC        lora_bate_9600
  X:04D6H         PUBLIC        lora_ver
  C:2C78H         PUBLIC        lora_chose_ntn_mode
  C:295AH         PUBLIC        _Lora_send_command
  C:2351H         PUBLIC        lora_send_net_data
  X:04DCH         PUBLIC        lora_ntn_rfreq
  X:04F0H         PUBLIC        lora_ntn_tfreq
  C:2417H         PUBLIC        lora_write_id
  C:2AD4H         PUBLIC        mcu_read_id
  X:0504H         PUBLIC        lora_ntn_cfg
  X:050EH         PUBLIC        lora_setfnbon
  D:00D0H         PUBLIC        PSW
  C:206AH         PUBLIC        lora_regsiter
  X:051AH         PUBLIC        _addr
  -------         PROC          LORA_NTN_REGSITER
  -------         DO            
  X:063BH         SYMBOL        result
  -------         ENDDO         
  C:2587H         LINE#         45
  C:2587H         LINE#         47
  C:2590H         LINE#         49
  C:2599H         LINE#         50
  C:25A0H         LINE#         51
  C:25A3H         LINE#         55
  C:25B1H         LINE#         56
  C:25B8H         LINE#         57
  C:25BBH         LINE#         58
  C:25C3H         LINE#         59
  C:25CAH         LINE#         60
  C:25CDH         LINE#         61
  C:25DBH         LINE#         62
  C:25E2H         LINE#         63
  C:25E5H         LINE#         64
  C:25F3H         LINE#         65
  C:25FAH         LINE#         66
  C:25FDH         LINE#         67
  C:260BH         LINE#         68
  C:2612H         LINE#         69
  C:2615H         LINE#         70
BL51 BANKED LINKER/LOCATER V6.22.2.0                                                  02/24/2021  13:50:53  PAGE 24


  C:2623H         LINE#         71
  C:262AH         LINE#         72
  C:262DH         LINE#         76
  C:2632H         LINE#         77
  -------         ENDPROC       LORA_NTN_REGSITER
  -------         PROC          LORA_CHOSE_NET_MODE
  -------         DO            
  X:063CH         SYMBOL        result
  -------         ENDDO         
  C:2C64H         LINE#         80
  C:2C64H         LINE#         82
  C:2C66H         LINE#         84
  C:2C6DH         LINE#         85
  C:2C70H         LINE#         87
  C:2C72H         LINE#         88
  C:2C77H         LINE#         89
  -------         ENDPROC       LORA_CHOSE_NET_MODE
  -------         PROC          LORA_CHOSE_NTN_MODE
  -------         DO            
  X:063DH         SYMBOL        result
  -------         ENDDO         
  C:2C78H         LINE#         90
  C:2C78H         LINE#         92
  C:2C7AH         LINE#         94
  C:2C81H         LINE#         95
  C:2C84H         LINE#         97
  C:2C86H         LINE#         98
  C:2C8BH         LINE#         100
  -------         ENDPROC       LORA_CHOSE_NTN_MODE
  C:2954H         SYMBOL        L?0029
  -------         PROC          L?0028
  -------         ENDPROC       L?0028
  C:2954H         SYMBOL        L?0029
  -------         PROC          _LORA_SEND_COMMAND
  X:0638H         SYMBOL        s
  C:295AH         LINE#         105
  C:2965H         LINE#         108
  C:2983H         LINE#         109
  C:2991H         LINE#         110
  C:2993H         LINE#         111
  -------         ENDPROC       _LORA_SEND_COMMAND
  -------         PROC          LORA_DISPALYREAD
  C:2A09H         LINE#         115
  C:2A09H         LINE#         116
  C:2A20H         LINE#         117
  C:2A29H         LINE#         118
  C:2A30H         LINE#         119
  -------         ENDPROC       LORA_DISPALYREAD
  -------         PROC          LORA_NTN_DISPALYREAD
  C:0026H         LINE#         123
  C:0026H         LINE#         124
  C:002FH         LINE#         127
  C:0036H         LINE#         128
  -------         ENDPROC       LORA_NTN_DISPALYREAD
  -------         PROC          LORA_UART_WRITE_ID
  C:27FEH         LINE#         135
  C:27FEH         LINE#         137
BL51 BANKED LINKER/LOCATER V6.22.2.0                                                  02/24/2021  13:50:53  PAGE 25


  C:2805H         LINE#         138
  C:2816H         LINE#         139
  C:281FH         LINE#         141
  C:282BH         LINE#         142
  C:2837H         LINE#         143
  C:2843H         LINE#         144
  C:284FH         LINE#         145
  C:2852H         LINE#         146
  C:2857H         LINE#         147
  -------         ENDPROC       LORA_UART_WRITE_ID
  -------         PROC          UART_WRITE_MV_ACC
  C:2864H         LINE#         150
  C:2864H         LINE#         152
  C:286BH         LINE#         153
  C:287CH         LINE#         154
  C:2885H         LINE#         156
  C:2891H         LINE#         157
  C:289DH         LINE#         158
  C:28A9H         LINE#         159
  C:28B5H         LINE#         160
  C:28B8H         LINE#         161
  C:28BDH         LINE#         162
  -------         ENDPROC       UART_WRITE_MV_ACC
  -------         PROC          MCU_READ_MV_ACC
  C:2AA3H         LINE#         166
  C:2AA3H         LINE#         167
  C:2AAFH         LINE#         168
  C:2ABBH         LINE#         169
  C:2AC7H         LINE#         170
  C:2AD3H         LINE#         176
  -------         ENDPROC       MCU_READ_MV_ACC
  -------         PROC          MCU_READ_ID
  C:2AD4H         LINE#         179
  C:2AD4H         LINE#         180
  C:2AE0H         LINE#         181
  C:2AECH         LINE#         182
  C:2AF8H         LINE#         183
  C:2B04H         LINE#         189
  -------         ENDPROC       MCU_READ_ID
  -------         PROC          MCU_GET_STAND_MV_ACC
  C:228AH         LINE#         190
  C:228AH         LINE#         191
  C:228DH         LINE#         192
  C:229CH         LINE#         193
  C:22A7H         LINE#         194
  C:22B6H         LINE#         195
  C:22C6H         LINE#         196
  C:22C8H         LINE#         197
  C:22C8H         LINE#         198
  C:22DCH         LINE#         199
  C:22DCH         LINE#         200
  C:22F9H         LINE#         201
  C:2301H         LINE#         202
  C:230DH         LINE#         203
  C:231EH         LINE#         204
  C:2320H         LINE#         205
  C:2334H         LINE#         206
BL51 BANKED LINKER/LOCATER V6.22.2.0                                                  02/24/2021  13:50:53  PAGE 26


  C:2334H         LINE#         207
  -------         ENDPROC       MCU_GET_STAND_MV_ACC
  -------         PROC          LORA_WRITE_ID
  C:2417H         LINE#         224
  C:2417H         LINE#         225
  C:243BH         LINE#         226
  C:2441H         LINE#         227
  C:2459H         LINE#         228
  C:2462H         LINE#         230
  C:246EH         LINE#         231
  C:247AH         LINE#         232
  C:2486H         LINE#         233
  C:2492H         LINE#         235
  C:2495H         LINE#         238
  C:249CH         LINE#         239
  C:24A9H         LINE#         240
  C:24B2H         LINE#         241
  C:24B8H         LINE#         244
  C:24B9H         LINE#         245
  C:24BCH         LINE#         246
  C:24C3H         LINE#         247
  C:24D0H         LINE#         248
  C:24D9H         LINE#         249
  C:24D9H         LINE#         250
  -------         ENDPROC       LORA_WRITE_ID
  -------         PROC          LORA_SEND_NET_DATA
  C:2351H         LINE#         252
  C:2351H         LINE#         255
  C:235DH         LINE#         256
  C:2369H         LINE#         257
  C:2375H         LINE#         258
  C:2381H         LINE#         259
  C:2387H         LINE#         261
  C:2389H         LINE#         263
  C:2391H         LINE#         264
  C:2399H         LINE#         265
  C:23A1H         LINE#         266
  C:23A9H         LINE#         267
  C:23B1H         LINE#         268
  C:23B9H         LINE#         269
  C:23C1H         LINE#         270
  C:23C9H         LINE#         271
  C:23D1H         LINE#         272
  C:23D9H         LINE#         273
  C:23E1H         LINE#         274
  C:23E9H         LINE#         275
  C:23F1H         LINE#         276
  C:23F9H         LINE#         277
  C:2401H         LINE#         278
  -------         ENDPROC       LORA_SEND_NET_DATA
  -------         PROC          LORA_SEND_NET_DATA_IMPORTANT
  C:24DAH         LINE#         281
  C:24DAH         LINE#         284
  C:24E6H         LINE#         285
  C:24F2H         LINE#         286
  C:24FEH         LINE#         287
  C:250AH         LINE#         288
BL51 BANKED LINKER/LOCATER V6.22.2.0                                                  02/24/2021  13:50:53  PAGE 27


  C:2510H         LINE#         290
  C:2512H         LINE#         292
  C:251AH         LINE#         293
  C:2522H         LINE#         294
  C:252AH         LINE#         295
  C:2532H         LINE#         296
  C:253AH         LINE#         297
  C:2542H         LINE#         298
  C:254AH         LINE#         299
  C:2552H         LINE#         300
  C:2557H         LINE#         301
  C:255FH         LINE#         302
  C:2567H         LINE#         303
  C:256FH         LINE#         304
  C:2577H         LINE#         305
  C:257FH         LINE#         306
  -------         ENDPROC       LORA_SEND_NET_DATA_IMPORTANT
  -------         PROC          LORA_REGSITER
  -------         DO            
  X:063EH         SYMBOL        result
  -------         ENDDO         
  C:206AH         LINE#         310
  C:206AH         LINE#         313
  C:2073H         LINE#         314
  C:207AH         LINE#         315
  C:207DH         LINE#         316
  C:208BH         LINE#         317
  C:2092H         LINE#         318
  C:2095H         LINE#         325
  C:209EH         LINE#         326
  C:20A5H         LINE#         327
  C:20A8H         LINE#         331
  C:20B0H         LINE#         332
  C:20B7H         LINE#         333
  C:20C9H         LINE#         334
  C:20C9H         LINE#         335
  C:20D2H         LINE#         336
  C:20DAH         LINE#         337
  C:20E1H         LINE#         338
  C:20E4H         LINE#         339
  C:20E6H         LINE#         340
  C:20EFH         LINE#         341
  C:20FDH         LINE#         342
  C:2104H         LINE#         343
  C:2107H         LINE#         344
  C:2115H         LINE#         345
  C:211CH         LINE#         346
  C:212AH         LINE#         347
  C:2131H         LINE#         348
  C:213AH         LINE#         349
  C:2141H         LINE#         350
  C:214FH         LINE#         351
  C:2156H         LINE#         352
  C:2164H         LINE#         353
  C:216BH         LINE#         354
  C:2179H         LINE#         355
  C:2180H         LINE#         356
BL51 BANKED LINKER/LOCATER V6.22.2.0                                                  02/24/2021  13:50:53  PAGE 28


  C:218EH         LINE#         357
  C:2195H         LINE#         359
  C:219AH         LINE#         360
  -------         ENDPROC       LORA_REGSITER
  -------         PROC          LORA_INIT_REGSITER
  -------         DO            
  X:063FH         SYMBOL        result
  -------         ENDDO         
  C:1ECCH         LINE#         383
  C:1ECCH         LINE#         385
  C:1EDAH         LINE#         386
  C:1EE1H         LINE#         387
  C:1EE4H         LINE#         388
  C:1EF2H         LINE#         389
  C:1EF9H         LINE#         390
  C:1EFCH         LINE#         391
  C:1F0AH         LINE#         392
  C:1F11H         LINE#         393
  C:1F14H         LINE#         394
  C:1F22H         LINE#         395
  C:1F29H         LINE#         396
  C:1F2CH         LINE#         397
  C:1F3AH         LINE#         398
  C:1F41H         LINE#         399
  C:1F44H         LINE#         400
  C:1F52H         LINE#         401
  C:1F59H         LINE#         402
  C:1F5CH         LINE#         403
  C:1F6AH         LINE#         404
  C:1F71H         LINE#         405
  C:1F74H         LINE#         406
  C:1F82H         LINE#         407
  C:1F89H         LINE#         408
  C:1F8CH         LINE#         409
  C:1F9AH         LINE#         410
  C:1FA1H         LINE#         411
  C:1FA4H         LINE#         412
  C:1FB2H         LINE#         413
  C:1FB9H         LINE#         414
  C:1FBCH         LINE#         416
  C:1FCAH         LINE#         417
  C:1FD1H         LINE#         418
  C:1FD4H         LINE#         419
  C:1FE2H         LINE#         420
  C:1FE9H         LINE#         421
  C:1FECH         LINE#         422
  C:1FFAH         LINE#         423
  C:2001H         LINE#         424
  C:2004H         LINE#         428
  C:2012H         LINE#         429
  C:2019H         LINE#         430
  C:201CH         LINE#         431
  C:202AH         LINE#         432
  C:2031H         LINE#         433
  C:2034H         LINE#         434
  C:2042H         LINE#         435
  C:2049H         LINE#         436
BL51 BANKED LINKER/LOCATER V6.22.2.0                                                  02/24/2021  13:50:53  PAGE 29


  C:204CH         LINE#         437
  C:205AH         LINE#         438
  C:2061H         LINE#         439
  C:2064H         LINE#         440
  C:2069H         LINE#         441
  -------         ENDPROC       LORA_INIT_REGSITER
  -------         ENDMOD        LORA

  -------         MODULE        EEPROM
  C:0000H         SYMBOL        _ICE_DUMMY_
  D:0080H         PUBLIC        P0
  D:0090H         PUBLIC        P1
  D:00A0H         PUBLIC        P2
  D:00B0H         PUBLIC        P3
  D:00C0H         PUBLIC        P4
  D:00C8H         PUBLIC        P5
  D:00E8H         PUBLIC        P6
  D:00F8H         PUBLIC        P7
  X:0621H         PUBLIC        eeprom_read
  D:00A8H         PUBLIC        IE
  C:2C4EH         PUBLIC        _IapErase
  D:00C5H         PUBLIC        IAP_CMD
  D:00B8H         PUBLIC        IP
  C:2C08H         PUBLIC        _IapRead
  C:2D21H         PUBLIC        IapIdle
  D:00C3H         PUBLIC        IAP_ADDRH
  D:00D8H         PUBLIC        CCON
  D:00C4H         PUBLIC        IAP_ADDRL
  D:0098H         PUBLIC        SCON
  D:0088H         PUBLIC        TCON
  X:0622H         PUBLIC        eeprom_read1
  X:0623H         PUBLIC        eeprom_read2
  X:0624H         PUBLIC        eeprom_read3
  X:0625H         PUBLIC        eeprom_read4
  X:0626H         PUBLIC        eeprom_read5
  X:0627H         PUBLIC        eeprom_read6
  X:0628H         PUBLIC        eeprom_read7
  D:00C7H         PUBLIC        IAP_CONTR
  X:0629H         PUBLIC        eeprom_read8
  D:00C2H         PUBLIC        IAP_DATA
  D:00C6H         PUBLIC        IAP_TRIG
  C:2BEEH         PUBLIC        _IapProgram
  D:00D0H         PUBLIC        PSW
  -------         PROC          IAPIDLE
  C:2D21H         LINE#         14
  C:2D21H         LINE#         15
  C:2D21H         LINE#         16
  C:2D24H         LINE#         17
  C:2D26H         LINE#         18
  C:2D28H         LINE#         19
  C:2D2BH         LINE#         20
  C:2D2DH         LINE#         21
  -------         ENDPROC       IAPIDLE
  -------         PROC          _IAPREAD
  D:0006H         SYMBOL        addr
  -------         DO            
  D:0007H         SYMBOL        dat
BL51 BANKED LINKER/LOCATER V6.22.2.0                                                  02/24/2021  13:50:53  PAGE 30


  -------         ENDDO         
  C:2C08H         LINE#         23
  C:2C08H         LINE#         24
  C:2C08H         LINE#         27
  C:2C0BH         LINE#         28
  C:2C0EH         LINE#         29
  C:2C10H         LINE#         30
  C:2C14H         LINE#         31
  C:2C17H         LINE#         32
  C:2C1AH         LINE#         33
  C:2C1BH         LINE#         34
  C:2C1DH         LINE#         35
  -------         ENDPROC       _IAPREAD
  -------         PROC          _IAPPROGRAM
  D:0006H         SYMBOL        addr
  D:0005H         SYMBOL        dat
  C:2BEEH         LINE#         39
  C:2BEEH         LINE#         40
  C:2BEEH         LINE#         41
  C:2BF1H         LINE#         42
  C:2BF4H         LINE#         43
  C:2BF6H         LINE#         44
  C:2BFAH         LINE#         45
  C:2BFEH         LINE#         46
  C:2C01H         LINE#         47
  C:2C04H         LINE#         48
  C:2C05H         LINE#         49
  -------         ENDPROC       _IAPPROGRAM
  -------         PROC          _IAPERASE
  D:0006H         SYMBOL        addr
  C:2C4EH         LINE#         52
  C:2C4EH         LINE#         53
  C:2C4EH         LINE#         54
  C:2C51H         LINE#         55
  C:2C54H         LINE#         56
  C:2C56H         LINE#         57
  C:2C5AH         LINE#         58
  C:2C5DH         LINE#         59
  C:2C60H         LINE#         60
  C:2C61H         LINE#         61
  -------         ENDPROC       _IAPERASE
  -------         ENDMOD        EEPROM

  -------         MODULE        ?C?FPADD
  C:00A5H         PUBLIC        ?C?FPADD
  C:00A1H         PUBLIC        ?C?FPSUB
  -------         ENDMOD        ?C?FPADD

  -------         MODULE        ?C?FPMUL
  C:0196H         PUBLIC        ?C?FPMUL
  -------         ENDMOD        ?C?FPMUL

  -------         MODULE        ?C?FPDIV
  C:029FH         PUBLIC        ?C?FPDIV
  -------         ENDMOD        ?C?FPDIV

  -------         MODULE        ?C?FPCMP
BL51 BANKED LINKER/LOCATER V6.22.2.0                                                  02/24/2021  13:50:53  PAGE 31


  C:033EH         PUBLIC        ?C?FPCMP
  C:033CH         PUBLIC        ?C?FPCMP3
  -------         ENDMOD        ?C?FPCMP

  -------         MODULE        ?C?FCAST
  C:03BFH         PUBLIC        ?C?FCASTC
  C:03BAH         PUBLIC        ?C?FCASTI
  C:03B5H         PUBLIC        ?C?FCASTL
  -------         ENDMOD        ?C?FCAST

  -------         MODULE        ?C?CASTF
  C:03F3H         PUBLIC        ?C?CASTF
  -------         ENDMOD        ?C?CASTF

  -------         MODULE        PRINTF
  X:05ACH         PUBLIC        ?_PRINTF?BYTE
  X:05ACH         PUBLIC        ?_SPRINTF?BYTE
  C:11B0H         PUBLIC        _PRINTF
  C:11AAH         PUBLIC        _SPRINTF
  -------         ENDMOD        PRINTF

  -------         MODULE        FABS
  C:2D2EH         PUBLIC        _FABS
  -------         ENDMOD        FABS

  -------         MODULE        ?C?FPROUND
  C:0474H         PUBLIC        ?C?FPROUND
  -------         ENDMOD        ?C?FPROUND

  -------         MODULE        ?C?FPCONVERT
  C:04B1H         PUBLIC        ?C?FPCONVERT
  -------         ENDMOD        ?C?FPCONVERT

  -------         MODULE        ?C?FTNPWR
  C:05E6H         PUBLIC        ?C?FTNPWR
  -------         ENDMOD        ?C?FTNPWR

  -------         MODULE        ?C?COPY
  C:06F6H         PUBLIC        ?C?COPY
  -------         ENDMOD        ?C?COPY

  -------         MODULE        ?C?CLDPTR
  C:071CH         PUBLIC        ?C?CLDPTR
  -------         ENDMOD        ?C?CLDPTR

  -------         MODULE        ?C?CLDOPTR
  C:0735H         PUBLIC        ?C?CLDOPTR
  -------         ENDMOD        ?C?CLDOPTR

  -------         MODULE        ?C?CSTPTR
  C:0762H         PUBLIC        ?C?CSTPTR
  -------         ENDMOD        ?C?CSTPTR

  -------         MODULE        ?C?IMUL
  C:0774H         PUBLIC        ?C?IMUL
  -------         ENDMOD        ?C?IMUL

BL51 BANKED LINKER/LOCATER V6.22.2.0                                                  02/24/2021  13:50:53  PAGE 32


  -------         MODULE        ?C?SIDIV
  C:0786H         PUBLIC        ?C?SIDIV
  -------         ENDMOD        ?C?SIDIV

  -------         MODULE        ?C?ILDIX
  C:07BCH         PUBLIC        ?C?ILDIX
  -------         ENDMOD        ?C?ILDIX

  -------         MODULE        ?C?ILDPTR
  C:07D2H         PUBLIC        ?C?ILDPTR
  -------         ENDMOD        ?C?ILDPTR

  -------         MODULE        ?C?LNEG
  C:07FDH         PUBLIC        ?C?LNEG
  -------         ENDMOD        ?C?LNEG

  -------         MODULE        ?C?ULCMP
  C:080BH         PUBLIC        ?C?ULCMP
  -------         ENDMOD        ?C?ULCMP

  -------         MODULE        ?C?LSTXDATA
  C:081CH         PUBLIC        ?C?LSTXDATA
  -------         ENDMOD        ?C?LSTXDATA

  -------         MODULE        ?C?PLDIXDATA
  C:0828H         PUBLIC        ?C?PLDIXDATA
  -------         ENDMOD        ?C?PLDIXDATA

  -------         MODULE        ?C?PSTXDATA
  C:083FH         PUBLIC        ?C?PSTXDATA
  -------         ENDMOD        ?C?PSTXDATA

  -------         MODULE        ?C?CCASE
  C:0848H         PUBLIC        ?C?CCASE
  -------         ENDMOD        ?C?CCASE

  -------         MODULE        ABS
  C:2D53H         PUBLIC        _ABS
  -------         ENDMOD        ABS

  -------         MODULE        ?C?STRCMP
  C:09ECH         PUBLIC        ?C?STRCMP
  -------         ENDMOD        ?C?STRCMP

  -------         MODULE        ?C?MEMSET
  C:0A09H         PUBLIC        ?C?MEMSET
  -------         ENDMOD        ?C?MEMSET

  -------         MODULE        ?C?UIDIV
  C:0A35H         PUBLIC        ?C?UIDIV
  -------         ENDMOD        ?C?UIDIV

Program Size: data=15.3 xdata=1600 code=11665
LINK/LOCATE RUN COMPLETE.  0 WARNING(S),  0 ERROR(S)
